{
	"Renting.sol": {
		"Renting": {
			"abi": [
				{
					"inputs": [
						{
							"internalType": "address",
							"name": "tenant_",
							"type": "address"
						},
						{
							"internalType": "uint256",
							"name": "rentAmount_",
							"type": "uint256"
						},
						{
							"internalType": "uint256",
							"name": "rentalPeriod_",
							"type": "uint256"
						},
						{
							"internalType": "string",
							"name": "assetName_",
							"type": "string"
						}
					],
					"stateMutability": "nonpayable",
					"type": "constructor"
				},
				{
					"anonymous": false,
					"inputs": [
						{
							"indexed": true,
							"internalType": "address",
							"name": "tenant",
							"type": "address"
						},
						{
							"indexed": false,
							"internalType": "uint256",
							"name": "amount",
							"type": "uint256"
						}
					],
					"name": "RentPaid",
					"type": "event"
				},
				{
					"anonymous": false,
					"inputs": [
						{
							"indexed": true,
							"internalType": "address",
							"name": "tenant",
							"type": "address"
						},
						{
							"indexed": false,
							"internalType": "uint256",
							"name": "amountRefunded",
							"type": "uint256"
						}
					],
					"name": "RentalCompleted",
					"type": "event"
				},
				{
					"inputs": [],
					"name": "RentalFinished",
					"outputs": [
						{
							"internalType": "bool",
							"name": "",
							"type": "bool"
						}
					],
					"stateMutability": "view",
					"type": "function"
				},
				{
					"inputs": [],
					"name": "assetName",
					"outputs": [
						{
							"internalType": "string",
							"name": "",
							"type": "string"
						}
					],
					"stateMutability": "view",
					"type": "function"
				},
				{
					"inputs": [],
					"name": "completeRental",
					"outputs": [],
					"stateMutability": "nonpayable",
					"type": "function"
				},
				{
					"inputs": [],
					"name": "depositAmount",
					"outputs": [
						{
							"internalType": "uint256",
							"name": "",
							"type": "uint256"
						}
					],
					"stateMutability": "view",
					"type": "function"
				},
				{
					"inputs": [],
					"name": "depositPercentage",
					"outputs": [
						{
							"internalType": "uint256",
							"name": "",
							"type": "uint256"
						}
					],
					"stateMutability": "view",
					"type": "function"
				},
				{
					"inputs": [],
					"name": "getAssetName",
					"outputs": [
						{
							"internalType": "string",
							"name": "",
							"type": "string"
						}
					],
					"stateMutability": "view",
					"type": "function"
				},
				{
					"inputs": [],
					"name": "getDepositAmount",
					"outputs": [
						{
							"internalType": "uint256",
							"name": "",
							"type": "uint256"
						}
					],
					"stateMutability": "view",
					"type": "function"
				},
				{
					"inputs": [],
					"name": "isActive",
					"outputs": [
						{
							"internalType": "bool",
							"name": "",
							"type": "bool"
						}
					],
					"stateMutability": "view",
					"type": "function"
				},
				{
					"inputs": [],
					"name": "owner",
					"outputs": [
						{
							"internalType": "address",
							"name": "",
							"type": "address"
						}
					],
					"stateMutability": "view",
					"type": "function"
				},
				{
					"inputs": [],
					"name": "payRent",
					"outputs": [],
					"stateMutability": "payable",
					"type": "function"
				},
				{
					"inputs": [],
					"name": "rentAmount",
					"outputs": [
						{
							"internalType": "uint256",
							"name": "",
							"type": "uint256"
						}
					],
					"stateMutability": "view",
					"type": "function"
				},
				{
					"inputs": [],
					"name": "rentalPeriod",
					"outputs": [
						{
							"internalType": "uint256",
							"name": "",
							"type": "uint256"
						}
					],
					"stateMutability": "view",
					"type": "function"
				},
				{
					"inputs": [],
					"name": "rentalStatus",
					"outputs": [
						{
							"internalType": "bool",
							"name": "",
							"type": "bool"
						}
					],
					"stateMutability": "view",
					"type": "function"
				},
				{
					"inputs": [],
					"name": "startTime",
					"outputs": [
						{
							"internalType": "uint256",
							"name": "",
							"type": "uint256"
						}
					],
					"stateMutability": "view",
					"type": "function"
				},
				{
					"inputs": [],
					"name": "tenant",
					"outputs": [
						{
							"internalType": "address",
							"name": "",
							"type": "address"
						}
					],
					"stateMutability": "view",
					"type": "function"
				},
				{
					"inputs": [],
					"name": "totalAmount",
					"outputs": [
						{
							"internalType": "uint256",
							"name": "",
							"type": "uint256"
						}
					],
					"stateMutability": "view",
					"type": "function"
				}
			],
			"devdoc": {
				"kind": "dev",
				"methods": {},
				"version": 1
			},
			"evm": {
				"assembly": "    /* \"Renting.sol\":126:3454  contract Renting {... */\n  mstore(0x40, 0x80)\n    /* \"Renting.sol\":491:493  20 */\n  0x14\n    /* \"Renting.sol\":456:493  uint256 public depositPercentage = 20 */\n  0x07\n  sstore\n    /* \"Renting.sol\":723:1263  constructor(address tenant_, uint256 rentAmount_, uint256 rentalPeriod_, string memory assetName_) {... */\n  callvalue\n  dup1\n  iszero\n  tag_1\n  jumpi\n  0x00\n  dup1\n  revert\ntag_1:\n  pop\n  mload(0x40)\n  sub(codesize, bytecodeSize)\n  dup1\n  bytecodeSize\n  dup4\n  codecopy\n  dup2\n  dup2\n  add\n  0x40\n  mstore\n  dup2\n  add\n  swap1\n  tag_2\n  swap2\n  swap1\n  tag_3\n  jump\t// in\ntag_2:\n    /* \"Renting.sol\":841:851  msg.sender */\n  caller\n    /* \"Renting.sol\":833:838  owner */\n  0x00\n  dup1\n    /* \"Renting.sol\":833:851  owner = msg.sender */\n  0x0100\n  exp\n  dup2\n  sload\n  dup2\n  0xffffffffffffffffffffffffffffffffffffffff\n  mul\n  not\n  and\n  swap1\n  dup4\n  0xffffffffffffffffffffffffffffffffffffffff\n  and\n  mul\n  or\n  swap1\n  sstore\n  pop\n    /* \"Renting.sol\":892:899  tenant_ */\n  dup4\n    /* \"Renting.sol\":883:889  tenant */\n  0x01\n  0x00\n    /* \"Renting.sol\":883:899  tenant = tenant_ */\n  0x0100\n  exp\n  dup2\n  sload\n  dup2\n  0xffffffffffffffffffffffffffffffffffffffff\n  mul\n  not\n  and\n  swap1\n  dup4\n  0xffffffffffffffffffffffffffffffffffffffff\n  and\n  mul\n  or\n  swap1\n  sstore\n  pop\n    /* \"Renting.sol\":937:942  1 wei */\n  0x01\n    /* \"Renting.sol\":923:934  rentAmount_ */\n  dup4\n    /* \"Renting.sol\":923:942  rentAmount_ * 1 wei */\n  tag_6\n  swap2\n  swap1\n  tag_7\n  jump\t// in\ntag_6:\n    /* \"Renting.sol\":910:920  rentAmount */\n  0x02\n    /* \"Renting.sol\":910:942  rentAmount = rentAmount_ * 1 wei */\n  dup2\n  swap1\n  sstore\n  pop\n    /* \"Renting.sol\":968:981  rentalPeriod_ */\n  dup2\n    /* \"Renting.sol\":953:965  rentalPeriod */\n  0x03\n    /* \"Renting.sol\":953:981  rentalPeriod = rentalPeriod_ */\n  dup2\n  swap1\n  sstore\n  pop\n    /* \"Renting.sol\":1004:1014  assetName_ */\n  dup1\n    /* \"Renting.sol\":992:1001  assetName */\n  0x06\n    /* \"Renting.sol\":992:1014  assetName = assetName_ */\n  swap1\n  dup2\n  tag_8\n  swap2\n  swap1\n  tag_9\n  jump\t// in\ntag_8:\n  pop\n    /* \"Renting.sol\":1059:1064  false */\n  0x00\n    /* \"Renting.sol\":1048:1056  isActive */\n  0x05\n  0x00\n    /* \"Renting.sol\":1048:1064  isActive = false */\n  0x0100\n  exp\n  dup2\n  sload\n  dup2\n  0xff\n  mul\n  not\n  and\n  swap1\n  dup4\n  iszero\n  iszero\n  mul\n  or\n  swap1\n  sstore\n  pop\n    /* \"Renting.sol\":1088:1093  false */\n  0x00\n    /* \"Renting.sol\":1075:1085  isFinished */\n  0x0a\n  0x00\n    /* \"Renting.sol\":1075:1093  isFinished = false */\n  0x0100\n  exp\n  dup2\n  sload\n  dup2\n  0xff\n  mul\n  not\n  and\n  swap1\n  dup4\n  iszero\n  iszero\n  mul\n  or\n  swap1\n  sstore\n  pop\n    /* \"Renting.sol\":1201:1204  100 */\n  0x64\n    /* \"Renting.sol\":1180:1197  depositPercentage */\n  sload(0x07)\n    /* \"Renting.sol\":1167:1177  rentAmount */\n  sload(0x02)\n    /* \"Renting.sol\":1167:1197  rentAmount * depositPercentage */\n  tag_10\n  swap2\n  swap1\n  tag_7\n  jump\t// in\ntag_10:\n    /* \"Renting.sol\":1166:1204  (rentAmount * depositPercentage) / 100 */\n  tag_11\n  swap2\n  swap1\n  tag_12\n  jump\t// in\ntag_11:\n    /* \"Renting.sol\":1150:1163  depositAmount */\n  0x08\n    /* \"Renting.sol\":1150:1204  depositAmount = (rentAmount * depositPercentage) / 100 */\n  dup2\n  swap1\n  sstore\n  pop\n    /* \"Renting.sol\":1242:1255  depositAmount */\n  sload(0x08)\n    /* \"Renting.sol\":1229:1239  rentAmount */\n  sload(0x02)\n    /* \"Renting.sol\":1229:1255  rentAmount + depositAmount */\n  tag_13\n  swap2\n  swap1\n  tag_14\n  jump\t// in\ntag_13:\n    /* \"Renting.sol\":1215:1226  totalAmount */\n  0x09\n    /* \"Renting.sol\":1215:1255  totalAmount = rentAmount + depositAmount */\n  dup2\n  swap1\n  sstore\n  pop\n    /* \"Renting.sol\":723:1263  constructor(address tenant_, uint256 rentAmount_, uint256 rentalPeriod_, string memory assetName_) {... */\n  pop\n  pop\n  pop\n  pop\n    /* \"Renting.sol\":126:3454  contract Renting {... */\n  jump(tag_15)\n    /* \"#utility.yul\":7:82   */\ntag_16:\n    /* \"#utility.yul\":40:46   */\n  0x00\n    /* \"#utility.yul\":73:75   */\n  0x40\n    /* \"#utility.yul\":67:76   */\n  mload\n    /* \"#utility.yul\":57:76   */\n  swap1\n  pop\n    /* \"#utility.yul\":7:82   */\n  swap1\n  jump\t// out\n    /* \"#utility.yul\":88:205   */\ntag_17:\n    /* \"#utility.yul\":197:198   */\n  0x00\n    /* \"#utility.yul\":194:195   */\n  dup1\n    /* \"#utility.yul\":187:199   */\n  revert\n    /* \"#utility.yul\":211:328   */\ntag_18:\n    /* \"#utility.yul\":320:321   */\n  0x00\n    /* \"#utility.yul\":317:318   */\n  dup1\n    /* \"#utility.yul\":310:322   */\n  revert\n    /* \"#utility.yul\":334:460   */\ntag_19:\n    /* \"#utility.yul\":371:378   */\n  0x00\n    /* \"#utility.yul\":411:453   */\n  0xffffffffffffffffffffffffffffffffffffffff\n    /* \"#utility.yul\":404:409   */\n  dup3\n    /* \"#utility.yul\":400:454   */\n  and\n    /* \"#utility.yul\":389:454   */\n  swap1\n  pop\n    /* \"#utility.yul\":334:460   */\n  swap2\n  swap1\n  pop\n  jump\t// out\n    /* \"#utility.yul\":466:562   */\ntag_20:\n    /* \"#utility.yul\":503:510   */\n  0x00\n    /* \"#utility.yul\":532:556   */\n  tag_62\n    /* \"#utility.yul\":550:555   */\n  dup3\n    /* \"#utility.yul\":532:556   */\n  tag_19\n  jump\t// in\ntag_62:\n    /* \"#utility.yul\":521:556   */\n  swap1\n  pop\n    /* \"#utility.yul\":466:562   */\n  swap2\n  swap1\n  pop\n  jump\t// out\n    /* \"#utility.yul\":568:690   */\ntag_21:\n    /* \"#utility.yul\":641:665   */\n  tag_64\n    /* \"#utility.yul\":659:664   */\n  dup2\n    /* \"#utility.yul\":641:665   */\n  tag_20\n  jump\t// in\ntag_64:\n    /* \"#utility.yul\":634:639   */\n  dup2\n    /* \"#utility.yul\":631:666   */\n  eq\n    /* \"#utility.yul\":621:684   */\n  tag_65\n  jumpi\n    /* \"#utility.yul\":680:681   */\n  0x00\n    /* \"#utility.yul\":677:678   */\n  dup1\n    /* \"#utility.yul\":670:682   */\n  revert\n    /* \"#utility.yul\":621:684   */\ntag_65:\n    /* \"#utility.yul\":568:690   */\n  pop\n  jump\t// out\n    /* \"#utility.yul\":696:839   */\ntag_22:\n    /* \"#utility.yul\":753:758   */\n  0x00\n    /* \"#utility.yul\":784:790   */\n  dup2\n    /* \"#utility.yul\":778:791   */\n  mload\n    /* \"#utility.yul\":769:791   */\n  swap1\n  pop\n    /* \"#utility.yul\":800:833   */\n  tag_67\n    /* \"#utility.yul\":827:832   */\n  dup2\n    /* \"#utility.yul\":800:833   */\n  tag_21\n  jump\t// in\ntag_67:\n    /* \"#utility.yul\":696:839   */\n  swap3\n  swap2\n  pop\n  pop\n  jump\t// out\n    /* \"#utility.yul\":845:922   */\ntag_23:\n    /* \"#utility.yul\":882:889   */\n  0x00\n    /* \"#utility.yul\":911:916   */\n  dup2\n    /* \"#utility.yul\":900:916   */\n  swap1\n  pop\n    /* \"#utility.yul\":845:922   */\n  swap2\n  swap1\n  pop\n  jump\t// out\n    /* \"#utility.yul\":928:1050   */\ntag_24:\n    /* \"#utility.yul\":1001:1025   */\n  tag_70\n    /* \"#utility.yul\":1019:1024   */\n  dup2\n    /* \"#utility.yul\":1001:1025   */\n  tag_23\n  jump\t// in\ntag_70:\n    /* \"#utility.yul\":994:999   */\n  dup2\n    /* \"#utility.yul\":991:1026   */\n  eq\n    /* \"#utility.yul\":981:1044   */\n  tag_71\n  jumpi\n    /* \"#utility.yul\":1040:1041   */\n  0x00\n    /* \"#utility.yul\":1037:1038   */\n  dup1\n    /* \"#utility.yul\":1030:1042   */\n  revert\n    /* \"#utility.yul\":981:1044   */\ntag_71:\n    /* \"#utility.yul\":928:1050   */\n  pop\n  jump\t// out\n    /* \"#utility.yul\":1056:1199   */\ntag_25:\n    /* \"#utility.yul\":1113:1118   */\n  0x00\n    /* \"#utility.yul\":1144:1150   */\n  dup2\n    /* \"#utility.yul\":1138:1151   */\n  mload\n    /* \"#utility.yul\":1129:1151   */\n  swap1\n  pop\n    /* \"#utility.yul\":1160:1193   */\n  tag_73\n    /* \"#utility.yul\":1187:1192   */\n  dup2\n    /* \"#utility.yul\":1160:1193   */\n  tag_24\n  jump\t// in\ntag_73:\n    /* \"#utility.yul\":1056:1199   */\n  swap3\n  swap2\n  pop\n  pop\n  jump\t// out\n    /* \"#utility.yul\":1205:1322   */\ntag_26:\n    /* \"#utility.yul\":1314:1315   */\n  0x00\n    /* \"#utility.yul\":1311:1312   */\n  dup1\n    /* \"#utility.yul\":1304:1316   */\n  revert\n    /* \"#utility.yul\":1328:1445   */\ntag_27:\n    /* \"#utility.yul\":1437:1438   */\n  0x00\n    /* \"#utility.yul\":1434:1435   */\n  dup1\n    /* \"#utility.yul\":1427:1439   */\n  revert\n    /* \"#utility.yul\":1451:1553   */\ntag_28:\n    /* \"#utility.yul\":1492:1498   */\n  0x00\n    /* \"#utility.yul\":1543:1545   */\n  0x1f\n    /* \"#utility.yul\":1539:1546   */\n  not\n    /* \"#utility.yul\":1534:1536   */\n  0x1f\n    /* \"#utility.yul\":1527:1532   */\n  dup4\n    /* \"#utility.yul\":1523:1537   */\n  add\n    /* \"#utility.yul\":1519:1547   */\n  and\n    /* \"#utility.yul\":1509:1547   */\n  swap1\n  pop\n    /* \"#utility.yul\":1451:1553   */\n  swap2\n  swap1\n  pop\n  jump\t// out\n    /* \"#utility.yul\":1559:1739   */\ntag_29:\n    /* \"#utility.yul\":1607:1684   */\n  0x4e487b7100000000000000000000000000000000000000000000000000000000\n    /* \"#utility.yul\":1604:1605   */\n  0x00\n    /* \"#utility.yul\":1597:1685   */\n  mstore\n    /* \"#utility.yul\":1704:1708   */\n  0x41\n    /* \"#utility.yul\":1701:1702   */\n  0x04\n    /* \"#utility.yul\":1694:1709   */\n  mstore\n    /* \"#utility.yul\":1728:1732   */\n  0x24\n    /* \"#utility.yul\":1725:1726   */\n  0x00\n    /* \"#utility.yul\":1718:1733   */\n  revert\n    /* \"#utility.yul\":1745:2026   */\ntag_30:\n    /* \"#utility.yul\":1828:1855   */\n  tag_79\n    /* \"#utility.yul\":1850:1854   */\n  dup3\n    /* \"#utility.yul\":1828:1855   */\n  tag_28\n  jump\t// in\ntag_79:\n    /* \"#utility.yul\":1820:1826   */\n  dup2\n    /* \"#utility.yul\":1816:1856   */\n  add\n    /* \"#utility.yul\":1958:1964   */\n  dup2\n    /* \"#utility.yul\":1946:1956   */\n  dup2\n    /* \"#utility.yul\":1943:1965   */\n  lt\n    /* \"#utility.yul\":1922:1940   */\n  0xffffffffffffffff\n    /* \"#utility.yul\":1910:1920   */\n  dup3\n    /* \"#utility.yul\":1907:1941   */\n  gt\n    /* \"#utility.yul\":1904:1966   */\n  or\n    /* \"#utility.yul\":1901:1989   */\n  iszero\n  tag_80\n  jumpi\n    /* \"#utility.yul\":1969:1987   */\n  tag_81\n  tag_29\n  jump\t// in\ntag_81:\n    /* \"#utility.yul\":1901:1989   */\ntag_80:\n    /* \"#utility.yul\":2009:2019   */\n  dup1\n    /* \"#utility.yul\":2005:2007   */\n  0x40\n    /* \"#utility.yul\":1998:2020   */\n  mstore\n    /* \"#utility.yul\":1788:2026   */\n  pop\n    /* \"#utility.yul\":1745:2026   */\n  pop\n  pop\n  jump\t// out\n    /* \"#utility.yul\":2032:2161   */\ntag_31:\n    /* \"#utility.yul\":2066:2072   */\n  0x00\n    /* \"#utility.yul\":2093:2113   */\n  tag_83\n  tag_16\n  jump\t// in\ntag_83:\n    /* \"#utility.yul\":2083:2113   */\n  swap1\n  pop\n    /* \"#utility.yul\":2122:2155   */\n  tag_84\n    /* \"#utility.yul\":2150:2154   */\n  dup3\n    /* \"#utility.yul\":2142:2148   */\n  dup3\n    /* \"#utility.yul\":2122:2155   */\n  tag_30\n  jump\t// in\ntag_84:\n    /* \"#utility.yul\":2032:2161   */\n  swap2\n  swap1\n  pop\n  jump\t// out\n    /* \"#utility.yul\":2167:2475   */\ntag_32:\n    /* \"#utility.yul\":2229:2233   */\n  0x00\n    /* \"#utility.yul\":2319:2337   */\n  0xffffffffffffffff\n    /* \"#utility.yul\":2311:2317   */\n  dup3\n    /* \"#utility.yul\":2308:2338   */\n  gt\n    /* \"#utility.yul\":2305:2361   */\n  iszero\n  tag_86\n  jumpi\n    /* \"#utility.yul\":2341:2359   */\n  tag_87\n  tag_29\n  jump\t// in\ntag_87:\n    /* \"#utility.yul\":2305:2361   */\ntag_86:\n    /* \"#utility.yul\":2379:2408   */\n  tag_88\n    /* \"#utility.yul\":2401:2407   */\n  dup3\n    /* \"#utility.yul\":2379:2408   */\n  tag_28\n  jump\t// in\ntag_88:\n    /* \"#utility.yul\":2371:2408   */\n  swap1\n  pop\n    /* \"#utility.yul\":2463:2467   */\n  0x20\n    /* \"#utility.yul\":2457:2461   */\n  dup2\n    /* \"#utility.yul\":2453:2468   */\n  add\n    /* \"#utility.yul\":2445:2468   */\n  swap1\n  pop\n    /* \"#utility.yul\":2167:2475   */\n  swap2\n  swap1\n  pop\n  jump\t// out\n    /* \"#utility.yul\":2481:2727   */\ntag_33:\n    /* \"#utility.yul\":2562:2563   */\n  0x00\n    /* \"#utility.yul\":2572:2685   */\ntag_90:\n    /* \"#utility.yul\":2586:2592   */\n  dup4\n    /* \"#utility.yul\":2583:2584   */\n  dup2\n    /* \"#utility.yul\":2580:2593   */\n  lt\n    /* \"#utility.yul\":2572:2685   */\n  iszero\n  tag_92\n  jumpi\n    /* \"#utility.yul\":2671:2672   */\n  dup1\n    /* \"#utility.yul\":2666:2669   */\n  dup3\n    /* \"#utility.yul\":2662:2673   */\n  add\n    /* \"#utility.yul\":2656:2674   */\n  mload\n    /* \"#utility.yul\":2652:2653   */\n  dup2\n    /* \"#utility.yul\":2647:2650   */\n  dup5\n    /* \"#utility.yul\":2643:2654   */\n  add\n    /* \"#utility.yul\":2636:2675   */\n  mstore\n    /* \"#utility.yul\":2608:2610   */\n  0x20\n    /* \"#utility.yul\":2605:2606   */\n  dup2\n    /* \"#utility.yul\":2601:2611   */\n  add\n    /* \"#utility.yul\":2596:2611   */\n  swap1\n  pop\n    /* \"#utility.yul\":2572:2685   */\n  jump(tag_90)\ntag_92:\n    /* \"#utility.yul\":2719:2720   */\n  0x00\n    /* \"#utility.yul\":2710:2716   */\n  dup5\n    /* \"#utility.yul\":2705:2708   */\n  dup5\n    /* \"#utility.yul\":2701:2717   */\n  add\n    /* \"#utility.yul\":2694:2721   */\n  mstore\n    /* \"#utility.yul\":2543:2727   */\n  pop\n    /* \"#utility.yul\":2481:2727   */\n  pop\n  pop\n  pop\n  jump\t// out\n    /* \"#utility.yul\":2733:3167   */\ntag_34:\n    /* \"#utility.yul\":2822:2827   */\n  0x00\n    /* \"#utility.yul\":2847:2913   */\n  tag_94\n    /* \"#utility.yul\":2863:2912   */\n  tag_95\n    /* \"#utility.yul\":2905:2911   */\n  dup5\n    /* \"#utility.yul\":2863:2912   */\n  tag_32\n  jump\t// in\ntag_95:\n    /* \"#utility.yul\":2847:2913   */\n  tag_31\n  jump\t// in\ntag_94:\n    /* \"#utility.yul\":2838:2913   */\n  swap1\n  pop\n    /* \"#utility.yul\":2936:2942   */\n  dup3\n    /* \"#utility.yul\":2929:2934   */\n  dup2\n    /* \"#utility.yul\":2922:2943   */\n  mstore\n    /* \"#utility.yul\":2974:2978   */\n  0x20\n    /* \"#utility.yul\":2967:2972   */\n  dup2\n    /* \"#utility.yul\":2963:2979   */\n  add\n    /* \"#utility.yul\":3012:3015   */\n  dup5\n    /* \"#utility.yul\":3003:3009   */\n  dup5\n    /* \"#utility.yul\":2998:3001   */\n  dup5\n    /* \"#utility.yul\":2994:3010   */\n  add\n    /* \"#utility.yul\":2991:3016   */\n  gt\n    /* \"#utility.yul\":2988:3100   */\n  iszero\n  tag_96\n  jumpi\n    /* \"#utility.yul\":3019:3098   */\n  tag_97\n  tag_27\n  jump\t// in\ntag_97:\n    /* \"#utility.yul\":2988:3100   */\ntag_96:\n    /* \"#utility.yul\":3109:3161   */\n  tag_98\n    /* \"#utility.yul\":3154:3160   */\n  dup5\n    /* \"#utility.yul\":3149:3152   */\n  dup3\n    /* \"#utility.yul\":3144:3147   */\n  dup6\n    /* \"#utility.yul\":3109:3161   */\n  tag_33\n  jump\t// in\ntag_98:\n    /* \"#utility.yul\":2828:3167   */\n  pop\n    /* \"#utility.yul\":2733:3167   */\n  swap4\n  swap3\n  pop\n  pop\n  pop\n  jump\t// out\n    /* \"#utility.yul\":3187:3542   */\ntag_35:\n    /* \"#utility.yul\":3254:3259   */\n  0x00\n    /* \"#utility.yul\":3303:3306   */\n  dup3\n    /* \"#utility.yul\":3296:3300   */\n  0x1f\n    /* \"#utility.yul\":3288:3294   */\n  dup4\n    /* \"#utility.yul\":3284:3301   */\n  add\n    /* \"#utility.yul\":3280:3307   */\n  slt\n    /* \"#utility.yul\":3270:3392   */\n  tag_100\n  jumpi\n    /* \"#utility.yul\":3311:3390   */\n  tag_101\n  tag_26\n  jump\t// in\ntag_101:\n    /* \"#utility.yul\":3270:3392   */\ntag_100:\n    /* \"#utility.yul\":3421:3427   */\n  dup2\n    /* \"#utility.yul\":3415:3428   */\n  mload\n    /* \"#utility.yul\":3446:3536   */\n  tag_102\n    /* \"#utility.yul\":3532:3535   */\n  dup5\n    /* \"#utility.yul\":3524:3530   */\n  dup3\n    /* \"#utility.yul\":3517:3521   */\n  0x20\n    /* \"#utility.yul\":3509:3515   */\n  dup7\n    /* \"#utility.yul\":3505:3522   */\n  add\n    /* \"#utility.yul\":3446:3536   */\n  tag_34\n  jump\t// in\ntag_102:\n    /* \"#utility.yul\":3437:3536   */\n  swap2\n  pop\n    /* \"#utility.yul\":3260:3542   */\n  pop\n    /* \"#utility.yul\":3187:3542   */\n  swap3\n  swap2\n  pop\n  pop\n  jump\t// out\n    /* \"#utility.yul\":3548:4541   */\ntag_3:\n    /* \"#utility.yul\":3655:3661   */\n  0x00\n    /* \"#utility.yul\":3663:3669   */\n  dup1\n    /* \"#utility.yul\":3671:3677   */\n  0x00\n    /* \"#utility.yul\":3679:3685   */\n  dup1\n    /* \"#utility.yul\":3728:3731   */\n  0x80\n    /* \"#utility.yul\":3716:3725   */\n  dup6\n    /* \"#utility.yul\":3707:3714   */\n  dup8\n    /* \"#utility.yul\":3703:3726   */\n  sub\n    /* \"#utility.yul\":3699:3732   */\n  slt\n    /* \"#utility.yul\":3696:3816   */\n  iszero\n  tag_104\n  jumpi\n    /* \"#utility.yul\":3735:3814   */\n  tag_105\n  tag_17\n  jump\t// in\ntag_105:\n    /* \"#utility.yul\":3696:3816   */\ntag_104:\n    /* \"#utility.yul\":3855:3856   */\n  0x00\n    /* \"#utility.yul\":3880:3944   */\n  tag_106\n    /* \"#utility.yul\":3936:3943   */\n  dup8\n    /* \"#utility.yul\":3927:3933   */\n  dup3\n    /* \"#utility.yul\":3916:3925   */\n  dup9\n    /* \"#utility.yul\":3912:3934   */\n  add\n    /* \"#utility.yul\":3880:3944   */\n  tag_22\n  jump\t// in\ntag_106:\n    /* \"#utility.yul\":3870:3944   */\n  swap5\n  pop\n    /* \"#utility.yul\":3826:3954   */\n  pop\n    /* \"#utility.yul\":3993:3995   */\n  0x20\n    /* \"#utility.yul\":4019:4083   */\n  tag_107\n    /* \"#utility.yul\":4075:4082   */\n  dup8\n    /* \"#utility.yul\":4066:4072   */\n  dup3\n    /* \"#utility.yul\":4055:4064   */\n  dup9\n    /* \"#utility.yul\":4051:4073   */\n  add\n    /* \"#utility.yul\":4019:4083   */\n  tag_25\n  jump\t// in\ntag_107:\n    /* \"#utility.yul\":4009:4083   */\n  swap4\n  pop\n    /* \"#utility.yul\":3964:4093   */\n  pop\n    /* \"#utility.yul\":4132:4134   */\n  0x40\n    /* \"#utility.yul\":4158:4222   */\n  tag_108\n    /* \"#utility.yul\":4214:4221   */\n  dup8\n    /* \"#utility.yul\":4205:4211   */\n  dup3\n    /* \"#utility.yul\":4194:4203   */\n  dup9\n    /* \"#utility.yul\":4190:4212   */\n  add\n    /* \"#utility.yul\":4158:4222   */\n  tag_25\n  jump\t// in\ntag_108:\n    /* \"#utility.yul\":4148:4222   */\n  swap3\n  pop\n    /* \"#utility.yul\":4103:4232   */\n  pop\n    /* \"#utility.yul\":4292:4294   */\n  0x60\n    /* \"#utility.yul\":4281:4290   */\n  dup6\n    /* \"#utility.yul\":4277:4295   */\n  add\n    /* \"#utility.yul\":4271:4296   */\n  mload\n    /* \"#utility.yul\":4323:4341   */\n  0xffffffffffffffff\n    /* \"#utility.yul\":4315:4321   */\n  dup2\n    /* \"#utility.yul\":4312:4342   */\n  gt\n    /* \"#utility.yul\":4309:4426   */\n  iszero\n  tag_109\n  jumpi\n    /* \"#utility.yul\":4345:4424   */\n  tag_110\n  tag_18\n  jump\t// in\ntag_110:\n    /* \"#utility.yul\":4309:4426   */\ntag_109:\n    /* \"#utility.yul\":4450:4524   */\n  tag_111\n    /* \"#utility.yul\":4516:4523   */\n  dup8\n    /* \"#utility.yul\":4507:4513   */\n  dup3\n    /* \"#utility.yul\":4496:4505   */\n  dup9\n    /* \"#utility.yul\":4492:4514   */\n  add\n    /* \"#utility.yul\":4450:4524   */\n  tag_35\n  jump\t// in\ntag_111:\n    /* \"#utility.yul\":4440:4524   */\n  swap2\n  pop\n    /* \"#utility.yul\":4242:4534   */\n  pop\n    /* \"#utility.yul\":3548:4541   */\n  swap3\n  swap6\n  swap2\n  swap5\n  pop\n  swap3\n  pop\n  jump\t// out\n    /* \"#utility.yul\":4547:4727   */\ntag_36:\n    /* \"#utility.yul\":4595:4672   */\n  0x4e487b7100000000000000000000000000000000000000000000000000000000\n    /* \"#utility.yul\":4592:4593   */\n  0x00\n    /* \"#utility.yul\":4585:4673   */\n  mstore\n    /* \"#utility.yul\":4692:4696   */\n  0x11\n    /* \"#utility.yul\":4689:4690   */\n  0x04\n    /* \"#utility.yul\":4682:4697   */\n  mstore\n    /* \"#utility.yul\":4716:4720   */\n  0x24\n    /* \"#utility.yul\":4713:4714   */\n  0x00\n    /* \"#utility.yul\":4706:4721   */\n  revert\n    /* \"#utility.yul\":4733:5143   */\ntag_7:\n    /* \"#utility.yul\":4773:4780   */\n  0x00\n    /* \"#utility.yul\":4796:4816   */\n  tag_114\n    /* \"#utility.yul\":4814:4815   */\n  dup3\n    /* \"#utility.yul\":4796:4816   */\n  tag_23\n  jump\t// in\ntag_114:\n    /* \"#utility.yul\":4791:4816   */\n  swap2\n  pop\n    /* \"#utility.yul\":4830:4850   */\n  tag_115\n    /* \"#utility.yul\":4848:4849   */\n  dup4\n    /* \"#utility.yul\":4830:4850   */\n  tag_23\n  jump\t// in\ntag_115:\n    /* \"#utility.yul\":4825:4850   */\n  swap3\n  pop\n    /* \"#utility.yul\":4885:4886   */\n  dup3\n    /* \"#utility.yul\":4882:4883   */\n  dup3\n    /* \"#utility.yul\":4878:4887   */\n  mul\n    /* \"#utility.yul\":4907:4937   */\n  tag_116\n    /* \"#utility.yul\":4925:4936   */\n  dup2\n    /* \"#utility.yul\":4907:4937   */\n  tag_23\n  jump\t// in\ntag_116:\n    /* \"#utility.yul\":4896:4937   */\n  swap2\n  pop\n    /* \"#utility.yul\":5086:5087   */\n  dup3\n    /* \"#utility.yul\":5077:5084   */\n  dup3\n    /* \"#utility.yul\":5073:5088   */\n  div\n    /* \"#utility.yul\":5070:5071   */\n  dup5\n    /* \"#utility.yul\":5067:5089   */\n  eq\n    /* \"#utility.yul\":5047:5048   */\n  dup4\n    /* \"#utility.yul\":5040:5049   */\n  iszero\n    /* \"#utility.yul\":5020:5103   */\n  or\n    /* \"#utility.yul\":4997:5136   */\n  tag_117\n  jumpi\n    /* \"#utility.yul\":5116:5134   */\n  tag_118\n  tag_36\n  jump\t// in\ntag_118:\n    /* \"#utility.yul\":4997:5136   */\ntag_117:\n    /* \"#utility.yul\":4781:5143   */\n  pop\n    /* \"#utility.yul\":4733:5143   */\n  swap3\n  swap2\n  pop\n  pop\n  jump\t// out\n    /* \"#utility.yul\":5149:5248   */\ntag_37:\n    /* \"#utility.yul\":5201:5207   */\n  0x00\n    /* \"#utility.yul\":5235:5240   */\n  dup2\n    /* \"#utility.yul\":5229:5241   */\n  mload\n    /* \"#utility.yul\":5219:5241   */\n  swap1\n  pop\n    /* \"#utility.yul\":5149:5248   */\n  swap2\n  swap1\n  pop\n  jump\t// out\n    /* \"#utility.yul\":5254:5434   */\ntag_38:\n    /* \"#utility.yul\":5302:5379   */\n  0x4e487b7100000000000000000000000000000000000000000000000000000000\n    /* \"#utility.yul\":5299:5300   */\n  0x00\n    /* \"#utility.yul\":5292:5380   */\n  mstore\n    /* \"#utility.yul\":5399:5403   */\n  0x22\n    /* \"#utility.yul\":5396:5397   */\n  0x04\n    /* \"#utility.yul\":5389:5404   */\n  mstore\n    /* \"#utility.yul\":5423:5427   */\n  0x24\n    /* \"#utility.yul\":5420:5421   */\n  0x00\n    /* \"#utility.yul\":5413:5428   */\n  revert\n    /* \"#utility.yul\":5440:5760   */\ntag_39:\n    /* \"#utility.yul\":5484:5490   */\n  0x00\n    /* \"#utility.yul\":5521:5522   */\n  0x02\n    /* \"#utility.yul\":5515:5519   */\n  dup3\n    /* \"#utility.yul\":5511:5523   */\n  div\n    /* \"#utility.yul\":5501:5523   */\n  swap1\n  pop\n    /* \"#utility.yul\":5568:5569   */\n  0x01\n    /* \"#utility.yul\":5562:5566   */\n  dup3\n    /* \"#utility.yul\":5558:5570   */\n  and\n    /* \"#utility.yul\":5589:5607   */\n  dup1\n    /* \"#utility.yul\":5579:5660   */\n  tag_122\n  jumpi\n    /* \"#utility.yul\":5645:5649   */\n  0x7f\n    /* \"#utility.yul\":5637:5643   */\n  dup3\n    /* \"#utility.yul\":5633:5650   */\n  and\n    /* \"#utility.yul\":5623:5650   */\n  swap2\n  pop\n    /* \"#utility.yul\":5579:5660   */\ntag_122:\n    /* \"#utility.yul\":5707:5709   */\n  0x20\n    /* \"#utility.yul\":5699:5705   */\n  dup3\n    /* \"#utility.yul\":5696:5710   */\n  lt\n    /* \"#utility.yul\":5676:5694   */\n  dup2\n    /* \"#utility.yul\":5673:5711   */\n  sub\n    /* \"#utility.yul\":5670:5754   */\n  tag_123\n  jumpi\n    /* \"#utility.yul\":5726:5744   */\n  tag_124\n  tag_38\n  jump\t// in\ntag_124:\n    /* \"#utility.yul\":5670:5754   */\ntag_123:\n    /* \"#utility.yul\":5491:5760   */\n  pop\n    /* \"#utility.yul\":5440:5760   */\n  swap2\n  swap1\n  pop\n  jump\t// out\n    /* \"#utility.yul\":5766:5907   */\ntag_40:\n    /* \"#utility.yul\":5815:5819   */\n  0x00\n    /* \"#utility.yul\":5838:5841   */\n  dup2\n    /* \"#utility.yul\":5830:5841   */\n  swap1\n  pop\n    /* \"#utility.yul\":5861:5864   */\n  dup2\n    /* \"#utility.yul\":5858:5859   */\n  0x00\n    /* \"#utility.yul\":5851:5865   */\n  mstore\n    /* \"#utility.yul\":5895:5899   */\n  0x20\n    /* \"#utility.yul\":5892:5893   */\n  0x00\n    /* \"#utility.yul\":5882:5900   */\n  keccak256\n    /* \"#utility.yul\":5874:5900   */\n  swap1\n  pop\n    /* \"#utility.yul\":5766:5907   */\n  swap2\n  swap1\n  pop\n  jump\t// out\n    /* \"#utility.yul\":5913:6006   */\ntag_41:\n    /* \"#utility.yul\":5950:5956   */\n  0x00\n    /* \"#utility.yul\":5997:5999   */\n  0x20\n    /* \"#utility.yul\":5992:5994   */\n  0x1f\n    /* \"#utility.yul\":5985:5990   */\n  dup4\n    /* \"#utility.yul\":5981:5995   */\n  add\n    /* \"#utility.yul\":5977:6000   */\n  div\n    /* \"#utility.yul\":5967:6000   */\n  swap1\n  pop\n    /* \"#utility.yul\":5913:6006   */\n  swap2\n  swap1\n  pop\n  jump\t// out\n    /* \"#utility.yul\":6012:6119   */\ntag_42:\n    /* \"#utility.yul\":6056:6064   */\n  0x00\n    /* \"#utility.yul\":6106:6111   */\n  dup3\n    /* \"#utility.yul\":6100:6104   */\n  dup3\n    /* \"#utility.yul\":6096:6112   */\n  shl\n    /* \"#utility.yul\":6075:6112   */\n  swap1\n  pop\n    /* \"#utility.yul\":6012:6119   */\n  swap3\n  swap2\n  pop\n  pop\n  jump\t// out\n    /* \"#utility.yul\":6125:6518   */\ntag_43:\n    /* \"#utility.yul\":6194:6200   */\n  0x00\n    /* \"#utility.yul\":6244:6245   */\n  0x08\n    /* \"#utility.yul\":6232:6242   */\n  dup4\n    /* \"#utility.yul\":6228:6246   */\n  mul\n    /* \"#utility.yul\":6267:6364   */\n  tag_129\n    /* \"#utility.yul\":6297:6363   */\n  0xffffffffffffffffffffffffffffffffffffffffffffffffffffffffffffffff\n    /* \"#utility.yul\":6286:6295   */\n  dup3\n    /* \"#utility.yul\":6267:6364   */\n  tag_42\n  jump\t// in\ntag_129:\n    /* \"#utility.yul\":6385:6424   */\n  tag_130\n    /* \"#utility.yul\":6415:6423   */\n  dup7\n    /* \"#utility.yul\":6404:6413   */\n  dup4\n    /* \"#utility.yul\":6385:6424   */\n  tag_42\n  jump\t// in\ntag_130:\n    /* \"#utility.yul\":6373:6424   */\n  swap6\n  pop\n    /* \"#utility.yul\":6457:6461   */\n  dup1\n    /* \"#utility.yul\":6453:6462   */\n  not\n    /* \"#utility.yul\":6446:6451   */\n  dup5\n    /* \"#utility.yul\":6442:6463   */\n  and\n    /* \"#utility.yul\":6433:6463   */\n  swap4\n  pop\n    /* \"#utility.yul\":6506:6510   */\n  dup1\n    /* \"#utility.yul\":6496:6504   */\n  dup7\n    /* \"#utility.yul\":6492:6511   */\n  and\n    /* \"#utility.yul\":6485:6490   */\n  dup5\n    /* \"#utility.yul\":6482:6512   */\n  or\n    /* \"#utility.yul\":6472:6512   */\n  swap3\n  pop\n    /* \"#utility.yul\":6201:6518   */\n  pop\n  pop\n    /* \"#utility.yul\":6125:6518   */\n  swap4\n  swap3\n  pop\n  pop\n  pop\n  jump\t// out\n    /* \"#utility.yul\":6524:6584   */\ntag_44:\n    /* \"#utility.yul\":6552:6555   */\n  0x00\n    /* \"#utility.yul\":6573:6578   */\n  dup2\n    /* \"#utility.yul\":6566:6578   */\n  swap1\n  pop\n    /* \"#utility.yul\":6524:6584   */\n  swap2\n  swap1\n  pop\n  jump\t// out\n    /* \"#utility.yul\":6590:6732   */\ntag_45:\n    /* \"#utility.yul\":6640:6649   */\n  0x00\n    /* \"#utility.yul\":6673:6726   */\n  tag_133\n    /* \"#utility.yul\":6691:6725   */\n  tag_134\n    /* \"#utility.yul\":6700:6724   */\n  tag_135\n    /* \"#utility.yul\":6718:6723   */\n  dup5\n    /* \"#utility.yul\":6700:6724   */\n  tag_23\n  jump\t// in\ntag_135:\n    /* \"#utility.yul\":6691:6725   */\n  tag_44\n  jump\t// in\ntag_134:\n    /* \"#utility.yul\":6673:6726   */\n  tag_23\n  jump\t// in\ntag_133:\n    /* \"#utility.yul\":6660:6726   */\n  swap1\n  pop\n    /* \"#utility.yul\":6590:6732   */\n  swap2\n  swap1\n  pop\n  jump\t// out\n    /* \"#utility.yul\":6738:6813   */\ntag_46:\n    /* \"#utility.yul\":6781:6784   */\n  0x00\n    /* \"#utility.yul\":6802:6807   */\n  dup2\n    /* \"#utility.yul\":6795:6807   */\n  swap1\n  pop\n    /* \"#utility.yul\":6738:6813   */\n  swap2\n  swap1\n  pop\n  jump\t// out\n    /* \"#utility.yul\":6819:7088   */\ntag_47:\n    /* \"#utility.yul\":6929:6968   */\n  tag_138\n    /* \"#utility.yul\":6960:6967   */\n  dup4\n    /* \"#utility.yul\":6929:6968   */\n  tag_45\n  jump\t// in\ntag_138:\n    /* \"#utility.yul\":6990:7081   */\n  tag_139\n    /* \"#utility.yul\":7039:7080   */\n  tag_140\n    /* \"#utility.yul\":7063:7079   */\n  dup3\n    /* \"#utility.yul\":7039:7080   */\n  tag_46\n  jump\t// in\ntag_140:\n    /* \"#utility.yul\":7031:7037   */\n  dup5\n    /* \"#utility.yul\":7024:7028   */\n  dup5\n    /* \"#utility.yul\":7018:7029   */\n  sload\n    /* \"#utility.yul\":6990:7081   */\n  tag_43\n  jump\t// in\ntag_139:\n    /* \"#utility.yul\":6984:6988   */\n  dup3\n    /* \"#utility.yul\":6977:7082   */\n  sstore\n    /* \"#utility.yul\":6895:7088   */\n  pop\n    /* \"#utility.yul\":6819:7088   */\n  pop\n  pop\n  pop\n  jump\t// out\n    /* \"#utility.yul\":7094:7167   */\ntag_48:\n    /* \"#utility.yul\":7139:7142   */\n  0x00\n    /* \"#utility.yul\":7094:7167   */\n  swap1\n  jump\t// out\n    /* \"#utility.yul\":7173:7362   */\ntag_49:\n    /* \"#utility.yul\":7250:7282   */\n  tag_143\n  tag_48\n  jump\t// in\ntag_143:\n    /* \"#utility.yul\":7291:7356   */\n  tag_144\n    /* \"#utility.yul\":7349:7355   */\n  dup2\n    /* \"#utility.yul\":7341:7347   */\n  dup5\n    /* \"#utility.yul\":7335:7339   */\n  dup5\n    /* \"#utility.yul\":7291:7356   */\n  tag_47\n  jump\t// in\ntag_144:\n    /* \"#utility.yul\":7226:7362   */\n  pop\n    /* \"#utility.yul\":7173:7362   */\n  pop\n  pop\n  jump\t// out\n    /* \"#utility.yul\":7368:7554   */\ntag_50:\n    /* \"#utility.yul\":7428:7548   */\ntag_146:\n    /* \"#utility.yul\":7445:7448   */\n  dup2\n    /* \"#utility.yul\":7438:7443   */\n  dup2\n    /* \"#utility.yul\":7435:7449   */\n  lt\n    /* \"#utility.yul\":7428:7548   */\n  iszero\n  tag_148\n  jumpi\n    /* \"#utility.yul\":7499:7538   */\n  tag_149\n    /* \"#utility.yul\":7536:7537   */\n  0x00\n    /* \"#utility.yul\":7529:7534   */\n  dup3\n    /* \"#utility.yul\":7499:7538   */\n  tag_49\n  jump\t// in\ntag_149:\n    /* \"#utility.yul\":7472:7473   */\n  0x01\n    /* \"#utility.yul\":7465:7470   */\n  dup2\n    /* \"#utility.yul\":7461:7474   */\n  add\n    /* \"#utility.yul\":7452:7474   */\n  swap1\n  pop\n    /* \"#utility.yul\":7428:7548   */\n  jump(tag_146)\ntag_148:\n    /* \"#utility.yul\":7368:7554   */\n  pop\n  pop\n  jump\t// out\n    /* \"#utility.yul\":7560:8103   */\ntag_51:\n    /* \"#utility.yul\":7661:7663   */\n  0x1f\n    /* \"#utility.yul\":7656:7659   */\n  dup3\n    /* \"#utility.yul\":7653:7664   */\n  gt\n    /* \"#utility.yul\":7650:8096   */\n  iszero\n  tag_151\n  jumpi\n    /* \"#utility.yul\":7695:7733   */\n  tag_152\n    /* \"#utility.yul\":7727:7732   */\n  dup2\n    /* \"#utility.yul\":7695:7733   */\n  tag_40\n  jump\t// in\ntag_152:\n    /* \"#utility.yul\":7779:7808   */\n  tag_153\n    /* \"#utility.yul\":7797:7807   */\n  dup5\n    /* \"#utility.yul\":7779:7808   */\n  tag_41\n  jump\t// in\ntag_153:\n    /* \"#utility.yul\":7769:7777   */\n  dup2\n    /* \"#utility.yul\":7765:7809   */\n  add\n    /* \"#utility.yul\":7962:7964   */\n  0x20\n    /* \"#utility.yul\":7950:7960   */\n  dup6\n    /* \"#utility.yul\":7947:7965   */\n  lt\n    /* \"#utility.yul\":7944:7993   */\n  iszero\n  tag_154\n  jumpi\n    /* \"#utility.yul\":7983:7991   */\n  dup2\n    /* \"#utility.yul\":7968:7991   */\n  swap1\n  pop\n    /* \"#utility.yul\":7944:7993   */\ntag_154:\n    /* \"#utility.yul\":8006:8086   */\n  tag_155\n    /* \"#utility.yul\":8062:8084   */\n  tag_156\n    /* \"#utility.yul\":8080:8083   */\n  dup6\n    /* \"#utility.yul\":8062:8084   */\n  tag_41\n  jump\t// in\ntag_156:\n    /* \"#utility.yul\":8052:8060   */\n  dup4\n    /* \"#utility.yul\":8048:8085   */\n  add\n    /* \"#utility.yul\":8035:8046   */\n  dup3\n    /* \"#utility.yul\":8006:8086   */\n  tag_50\n  jump\t// in\ntag_155:\n    /* \"#utility.yul\":7665:8096   */\n  pop\n  pop\n    /* \"#utility.yul\":7650:8096   */\ntag_151:\n    /* \"#utility.yul\":7560:8103   */\n  pop\n  pop\n  pop\n  jump\t// out\n    /* \"#utility.yul\":8109:8226   */\ntag_52:\n    /* \"#utility.yul\":8163:8171   */\n  0x00\n    /* \"#utility.yul\":8213:8218   */\n  dup3\n    /* \"#utility.yul\":8207:8211   */\n  dup3\n    /* \"#utility.yul\":8203:8219   */\n  shr\n    /* \"#utility.yul\":8182:8219   */\n  swap1\n  pop\n    /* \"#utility.yul\":8109:8226   */\n  swap3\n  swap2\n  pop\n  pop\n  jump\t// out\n    /* \"#utility.yul\":8232:8401   */\ntag_53:\n    /* \"#utility.yul\":8276:8282   */\n  0x00\n    /* \"#utility.yul\":8309:8360   */\n  tag_159\n    /* \"#utility.yul\":8357:8358   */\n  0x00\n    /* \"#utility.yul\":8353:8359   */\n  not\n    /* \"#utility.yul\":8345:8350   */\n  dup5\n    /* \"#utility.yul\":8342:8343   */\n  0x08\n    /* \"#utility.yul\":8338:8351   */\n  mul\n    /* \"#utility.yul\":8309:8360   */\n  tag_52\n  jump\t// in\ntag_159:\n    /* \"#utility.yul\":8305:8361   */\n  not\n    /* \"#utility.yul\":8390:8394   */\n  dup1\n    /* \"#utility.yul\":8384:8388   */\n  dup4\n    /* \"#utility.yul\":8380:8395   */\n  and\n    /* \"#utility.yul\":8370:8395   */\n  swap2\n  pop\n    /* \"#utility.yul\":8283:8401   */\n  pop\n    /* \"#utility.yul\":8232:8401   */\n  swap3\n  swap2\n  pop\n  pop\n  jump\t// out\n    /* \"#utility.yul\":8406:8701   */\ntag_54:\n    /* \"#utility.yul\":8482:8486   */\n  0x00\n    /* \"#utility.yul\":8628:8657   */\n  tag_161\n    /* \"#utility.yul\":8653:8656   */\n  dup4\n    /* \"#utility.yul\":8647:8651   */\n  dup4\n    /* \"#utility.yul\":8628:8657   */\n  tag_53\n  jump\t// in\ntag_161:\n    /* \"#utility.yul\":8620:8657   */\n  swap2\n  pop\n    /* \"#utility.yul\":8690:8693   */\n  dup3\n    /* \"#utility.yul\":8687:8688   */\n  0x02\n    /* \"#utility.yul\":8683:8694   */\n  mul\n    /* \"#utility.yul\":8677:8681   */\n  dup3\n    /* \"#utility.yul\":8674:8695   */\n  or\n    /* \"#utility.yul\":8666:8695   */\n  swap1\n  pop\n    /* \"#utility.yul\":8406:8701   */\n  swap3\n  swap2\n  pop\n  pop\n  jump\t// out\n    /* \"#utility.yul\":8706:10101   */\ntag_9:\n    /* \"#utility.yul\":8823:8860   */\n  tag_163\n    /* \"#utility.yul\":8856:8859   */\n  dup3\n    /* \"#utility.yul\":8823:8860   */\n  tag_37\n  jump\t// in\ntag_163:\n    /* \"#utility.yul\":8925:8943   */\n  0xffffffffffffffff\n    /* \"#utility.yul\":8917:8923   */\n  dup2\n    /* \"#utility.yul\":8914:8944   */\n  gt\n    /* \"#utility.yul\":8911:8967   */\n  iszero\n  tag_164\n  jumpi\n    /* \"#utility.yul\":8947:8965   */\n  tag_165\n  tag_29\n  jump\t// in\ntag_165:\n    /* \"#utility.yul\":8911:8967   */\ntag_164:\n    /* \"#utility.yul\":8991:9029   */\n  tag_166\n    /* \"#utility.yul\":9023:9027   */\n  dup3\n    /* \"#utility.yul\":9017:9028   */\n  sload\n    /* \"#utility.yul\":8991:9029   */\n  tag_39\n  jump\t// in\ntag_166:\n    /* \"#utility.yul\":9076:9143   */\n  tag_167\n    /* \"#utility.yul\":9136:9142   */\n  dup3\n    /* \"#utility.yul\":9128:9134   */\n  dup3\n    /* \"#utility.yul\":9122:9126   */\n  dup6\n    /* \"#utility.yul\":9076:9143   */\n  tag_51\n  jump\t// in\ntag_167:\n    /* \"#utility.yul\":9170:9171   */\n  0x00\n    /* \"#utility.yul\":9194:9198   */\n  0x20\n    /* \"#utility.yul\":9181:9198   */\n  swap1\n  pop\n    /* \"#utility.yul\":9226:9228   */\n  0x1f\n    /* \"#utility.yul\":9218:9224   */\n  dup4\n    /* \"#utility.yul\":9215:9229   */\n  gt\n    /* \"#utility.yul\":9243:9244   */\n  0x01\n    /* \"#utility.yul\":9238:9856   */\n  dup2\n  eq\n  tag_169\n  jumpi\n    /* \"#utility.yul\":9900:9901   */\n  0x00\n    /* \"#utility.yul\":9917:9923   */\n  dup5\n    /* \"#utility.yul\":9914:9991   */\n  iszero\n  tag_170\n  jumpi\n    /* \"#utility.yul\":9966:9975   */\n  dup3\n    /* \"#utility.yul\":9961:9964   */\n  dup8\n    /* \"#utility.yul\":9957:9976   */\n  add\n    /* \"#utility.yul\":9951:9977   */\n  mload\n    /* \"#utility.yul\":9942:9977   */\n  swap1\n  pop\n    /* \"#utility.yul\":9914:9991   */\ntag_170:\n    /* \"#utility.yul\":10017:10084   */\n  tag_171\n    /* \"#utility.yul\":10077:10083   */\n  dup6\n    /* \"#utility.yul\":10070:10075   */\n  dup3\n    /* \"#utility.yul\":10017:10084   */\n  tag_54\n  jump\t// in\ntag_171:\n    /* \"#utility.yul\":10011:10015   */\n  dup7\n    /* \"#utility.yul\":10004:10085   */\n  sstore\n    /* \"#utility.yul\":9873:10095   */\n  pop\n    /* \"#utility.yul\":9208:10095   */\n  jump(tag_168)\n    /* \"#utility.yul\":9238:9856   */\ntag_169:\n    /* \"#utility.yul\":9290:9294   */\n  0x1f\n    /* \"#utility.yul\":9286:9295   */\n  not\n    /* \"#utility.yul\":9278:9284   */\n  dup5\n    /* \"#utility.yul\":9274:9296   */\n  and\n    /* \"#utility.yul\":9324:9361   */\n  tag_172\n    /* \"#utility.yul\":9356:9360   */\n  dup7\n    /* \"#utility.yul\":9324:9361   */\n  tag_40\n  jump\t// in\ntag_172:\n    /* \"#utility.yul\":9383:9384   */\n  0x00\n    /* \"#utility.yul\":9397:9605   */\ntag_173:\n    /* \"#utility.yul\":9411:9418   */\n  dup3\n    /* \"#utility.yul\":9408:9409   */\n  dup2\n    /* \"#utility.yul\":9405:9419   */\n  lt\n    /* \"#utility.yul\":9397:9605   */\n  iszero\n  tag_175\n  jumpi\n    /* \"#utility.yul\":9490:9499   */\n  dup5\n    /* \"#utility.yul\":9485:9488   */\n  dup10\n    /* \"#utility.yul\":9481:9500   */\n  add\n    /* \"#utility.yul\":9475:9501   */\n  mload\n    /* \"#utility.yul\":9467:9473   */\n  dup3\n    /* \"#utility.yul\":9460:9502   */\n  sstore\n    /* \"#utility.yul\":9541:9542   */\n  0x01\n    /* \"#utility.yul\":9533:9539   */\n  dup3\n    /* \"#utility.yul\":9529:9543   */\n  add\n    /* \"#utility.yul\":9519:9543   */\n  swap2\n  pop\n    /* \"#utility.yul\":9588:9590   */\n  0x20\n    /* \"#utility.yul\":9577:9586   */\n  dup6\n    /* \"#utility.yul\":9573:9591   */\n  add\n    /* \"#utility.yul\":9560:9591   */\n  swap5\n  pop\n    /* \"#utility.yul\":9434:9438   */\n  0x20\n    /* \"#utility.yul\":9431:9432   */\n  dup2\n    /* \"#utility.yul\":9427:9439   */\n  add\n    /* \"#utility.yul\":9422:9439   */\n  swap1\n  pop\n    /* \"#utility.yul\":9397:9605   */\n  jump(tag_173)\ntag_175:\n    /* \"#utility.yul\":9633:9639   */\n  dup7\n    /* \"#utility.yul\":9624:9631   */\n  dup4\n    /* \"#utility.yul\":9621:9640   */\n  lt\n    /* \"#utility.yul\":9618:9797   */\n  iszero\n  tag_176\n  jumpi\n    /* \"#utility.yul\":9691:9700   */\n  dup5\n    /* \"#utility.yul\":9686:9689   */\n  dup10\n    /* \"#utility.yul\":9682:9701   */\n  add\n    /* \"#utility.yul\":9676:9702   */\n  mload\n    /* \"#utility.yul\":9734:9782   */\n  tag_177\n    /* \"#utility.yul\":9776:9780   */\n  0x1f\n    /* \"#utility.yul\":9768:9774   */\n  dup10\n    /* \"#utility.yul\":9764:9781   */\n  and\n    /* \"#utility.yul\":9753:9762   */\n  dup3\n    /* \"#utility.yul\":9734:9782   */\n  tag_53\n  jump\t// in\ntag_177:\n    /* \"#utility.yul\":9726:9732   */\n  dup4\n    /* \"#utility.yul\":9719:9783   */\n  sstore\n    /* \"#utility.yul\":9641:9797   */\n  pop\n    /* \"#utility.yul\":9618:9797   */\ntag_176:\n    /* \"#utility.yul\":9843:9844   */\n  0x01\n    /* \"#utility.yul\":9839:9840   */\n  0x02\n    /* \"#utility.yul\":9831:9837   */\n  dup9\n    /* \"#utility.yul\":9827:9841   */\n  mul\n    /* \"#utility.yul\":9823:9845   */\n  add\n    /* \"#utility.yul\":9817:9821   */\n  dup9\n    /* \"#utility.yul\":9810:9846   */\n  sstore\n    /* \"#utility.yul\":9245:9856   */\n  pop\n  pop\n  pop\n    /* \"#utility.yul\":9208:10095   */\ntag_168:\n  pop\n    /* \"#utility.yul\":8798:10101   */\n  pop\n  pop\n  pop\n    /* \"#utility.yul\":8706:10101   */\n  pop\n  pop\n  jump\t// out\n    /* \"#utility.yul\":10107:10287   */\ntag_55:\n    /* \"#utility.yul\":10155:10232   */\n  0x4e487b7100000000000000000000000000000000000000000000000000000000\n    /* \"#utility.yul\":10152:10153   */\n  0x00\n    /* \"#utility.yul\":10145:10233   */\n  mstore\n    /* \"#utility.yul\":10252:10256   */\n  0x12\n    /* \"#utility.yul\":10249:10250   */\n  0x04\n    /* \"#utility.yul\":10242:10257   */\n  mstore\n    /* \"#utility.yul\":10276:10280   */\n  0x24\n    /* \"#utility.yul\":10273:10274   */\n  0x00\n    /* \"#utility.yul\":10266:10281   */\n  revert\n    /* \"#utility.yul\":10293:10478   */\ntag_12:\n    /* \"#utility.yul\":10333:10334   */\n  0x00\n    /* \"#utility.yul\":10350:10370   */\n  tag_180\n    /* \"#utility.yul\":10368:10369   */\n  dup3\n    /* \"#utility.yul\":10350:10370   */\n  tag_23\n  jump\t// in\ntag_180:\n    /* \"#utility.yul\":10345:10370   */\n  swap2\n  pop\n    /* \"#utility.yul\":10384:10404   */\n  tag_181\n    /* \"#utility.yul\":10402:10403   */\n  dup4\n    /* \"#utility.yul\":10384:10404   */\n  tag_23\n  jump\t// in\ntag_181:\n    /* \"#utility.yul\":10379:10404   */\n  swap3\n  pop\n    /* \"#utility.yul\":10423:10424   */\n  dup3\n    /* \"#utility.yul\":10413:10448   */\n  tag_182\n  jumpi\n    /* \"#utility.yul\":10428:10446   */\n  tag_183\n  tag_55\n  jump\t// in\ntag_183:\n    /* \"#utility.yul\":10413:10448   */\ntag_182:\n    /* \"#utility.yul\":10470:10471   */\n  dup3\n    /* \"#utility.yul\":10467:10468   */\n  dup3\n    /* \"#utility.yul\":10463:10472   */\n  div\n    /* \"#utility.yul\":10458:10472   */\n  swap1\n  pop\n    /* \"#utility.yul\":10293:10478   */\n  swap3\n  swap2\n  pop\n  pop\n  jump\t// out\n    /* \"#utility.yul\":10484:10675   */\ntag_14:\n    /* \"#utility.yul\":10524:10527   */\n  0x00\n    /* \"#utility.yul\":10543:10563   */\n  tag_185\n    /* \"#utility.yul\":10561:10562   */\n  dup3\n    /* \"#utility.yul\":10543:10563   */\n  tag_23\n  jump\t// in\ntag_185:\n    /* \"#utility.yul\":10538:10563   */\n  swap2\n  pop\n    /* \"#utility.yul\":10577:10597   */\n  tag_186\n    /* \"#utility.yul\":10595:10596   */\n  dup4\n    /* \"#utility.yul\":10577:10597   */\n  tag_23\n  jump\t// in\ntag_186:\n    /* \"#utility.yul\":10572:10597   */\n  swap3\n  pop\n    /* \"#utility.yul\":10620:10621   */\n  dup3\n    /* \"#utility.yul\":10617:10618   */\n  dup3\n    /* \"#utility.yul\":10613:10622   */\n  add\n    /* \"#utility.yul\":10606:10622   */\n  swap1\n  pop\n    /* \"#utility.yul\":10641:10644   */\n  dup1\n    /* \"#utility.yul\":10638:10639   */\n  dup3\n    /* \"#utility.yul\":10635:10645   */\n  gt\n    /* \"#utility.yul\":10632:10668   */\n  iszero\n  tag_187\n  jumpi\n    /* \"#utility.yul\":10648:10666   */\n  tag_188\n  tag_36\n  jump\t// in\ntag_188:\n    /* \"#utility.yul\":10632:10668   */\ntag_187:\n    /* \"#utility.yul\":10484:10675   */\n  swap3\n  swap2\n  pop\n  pop\n  jump\t// out\n    /* \"Renting.sol\":126:3454  contract Renting {... */\ntag_15:\n  dataSize(sub_0)\n  dup1\n  dataOffset(sub_0)\n  0x00\n  codecopy\n  0x00\n  return\nstop\n\nsub_0: assembly {\n        /* \"Renting.sol\":126:3454  contract Renting {... */\n      mstore(0x40, 0x80)\n      jumpi(tag_1, lt(calldatasize, 0x04))\n      shr(0xe0, calldataload(0x00))\n      dup1\n      0x7d96f693\n      gt\n      tag_18\n      jumpi\n      dup1\n      0xadf07791\n      gt\n      tag_19\n      jumpi\n      dup1\n      0xadf07791\n      eq\n      tag_14\n      jumpi\n      dup1\n      0xc9230c5d\n      eq\n      tag_15\n      jumpi\n      dup1\n      0xdf714006\n      eq\n      tag_16\n      jumpi\n      dup1\n      0xf8ef1e13\n      eq\n      tag_17\n      jumpi\n      jump(tag_1)\n    tag_19:\n      dup1\n      0x7d96f693\n      eq\n      tag_10\n      jumpi\n      dup1\n      0x8c4b8475\n      eq\n      tag_11\n      jumpi\n      dup1\n      0x8da5cb5b\n      eq\n      tag_12\n      jumpi\n      dup1\n      0xa709c4fe\n      eq\n      tag_13\n      jumpi\n      jump(tag_1)\n    tag_18:\n      dup1\n      0x31d019b7\n      gt\n      tag_20\n      jumpi\n      dup1\n      0x31d019b7\n      eq\n      tag_6\n      jumpi\n      dup1\n      0x419759f5\n      eq\n      tag_7\n      jumpi\n      dup1\n      0x6d76a585\n      eq\n      tag_8\n      jumpi\n      dup1\n      0x78e97925\n      eq\n      tag_9\n      jumpi\n      jump(tag_1)\n    tag_20:\n      dup1\n      0x092d4eb5\n      eq\n      tag_2\n      jumpi\n      dup1\n      0x0c3562ba\n      eq\n      tag_3\n      jumpi\n      dup1\n      0x1a39d8ef\n      eq\n      tag_4\n      jumpi\n      dup1\n      0x22f3e2d4\n      eq\n      tag_5\n      jumpi\n    tag_1:\n      0x00\n      dup1\n      revert\n        /* \"Renting.sol\":3148:3245  function getAssetName() external view returns (string memory) {... */\n    tag_2:\n      callvalue\n      dup1\n      iszero\n      tag_21\n      jumpi\n      0x00\n      dup1\n      revert\n    tag_21:\n      pop\n      tag_22\n      tag_23\n      jump\t// in\n    tag_22:\n      mload(0x40)\n      tag_24\n      swap2\n      swap1\n      tag_25\n      jump\t// in\n    tag_24:\n      mload(0x40)\n      dup1\n      swap2\n      sub\n      swap1\n      return\n        /* \"Renting.sol\":456:493  uint256 public depositPercentage = 20 */\n    tag_3:\n      callvalue\n      dup1\n      iszero\n      tag_26\n      jumpi\n      0x00\n      dup1\n      revert\n    tag_26:\n      pop\n      tag_27\n      tag_28\n      jump\t// in\n    tag_27:\n      mload(0x40)\n      tag_29\n      swap2\n      swap1\n      tag_30\n      jump\t// in\n    tag_29:\n      mload(0x40)\n      dup1\n      swap2\n      sub\n      swap1\n      return\n        /* \"Renting.sol\":584:610  uint256 public totalAmount */\n    tag_4:\n      callvalue\n      dup1\n      iszero\n      tag_31\n      jumpi\n      0x00\n      dup1\n      revert\n    tag_31:\n      pop\n      tag_32\n      tag_33\n      jump\t// in\n    tag_32:\n      mload(0x40)\n      tag_34\n      swap2\n      swap1\n      tag_30\n      jump\t// in\n    tag_34:\n      mload(0x40)\n      dup1\n      swap2\n      sub\n      swap1\n      return\n        /* \"Renting.sol\":381:401  bool public isActive */\n    tag_5:\n      callvalue\n      dup1\n      iszero\n      tag_35\n      jumpi\n      0x00\n      dup1\n      revert\n    tag_35:\n      pop\n      tag_36\n      tag_37\n      jump\t// in\n    tag_36:\n      mload(0x40)\n      tag_38\n      swap2\n      swap1\n      tag_39\n      jump\t// in\n    tag_38:\n      mload(0x40)\n      dup1\n      swap2\n      sub\n      swap1\n      return\n        /* \"Renting.sol\":3053:3140  function rentalStatus() external view returns (bool) {... */\n    tag_6:\n      callvalue\n      dup1\n      iszero\n      tag_40\n      jumpi\n      0x00\n      dup1\n      revert\n    tag_40:\n      pop\n      tag_41\n      tag_42\n      jump\t// in\n    tag_41:\n      mload(0x40)\n      tag_43\n      swap2\n      swap1\n      tag_39\n      jump\t// in\n    tag_43:\n      mload(0x40)\n      dup1\n      swap2\n      sub\n      swap1\n      return\n        /* \"Renting.sol\":530:558  uint256 public depositAmount */\n    tag_7:\n      callvalue\n      dup1\n      iszero\n      tag_44\n      jumpi\n      0x00\n      dup1\n      revert\n    tag_44:\n      pop\n      tag_45\n      tag_46\n      jump\t// in\n    tag_45:\n      mload(0x40)\n      tag_47\n      swap2\n      swap1\n      tag_30\n      jump\t// in\n    tag_47:\n      mload(0x40)\n      dup1\n      swap2\n      sub\n      swap1\n      return\n        /* \"Renting.sol\":2802:3045  function completeRental() external onlyOwner isRentalActive {... */\n    tag_8:\n      callvalue\n      dup1\n      iszero\n      tag_48\n      jumpi\n      0x00\n      dup1\n      revert\n    tag_48:\n      pop\n      tag_49\n      tag_50\n      jump\t// in\n    tag_49:\n      stop\n        /* \"Renting.sol\":336:360  uint256 public startTime */\n    tag_9:\n      callvalue\n      dup1\n      iszero\n      tag_51\n      jumpi\n      0x00\n      dup1\n      revert\n    tag_51:\n      pop\n      tag_52\n      tag_53\n      jump\t// in\n    tag_52:\n      mload(0x40)\n      tag_54\n      swap2\n      swap1\n      tag_30\n      jump\t// in\n    tag_54:\n      mload(0x40)\n      dup1\n      swap2\n      sub\n      swap1\n      return\n        /* \"Renting.sol\":3253:3352  function getDepositAmount() external view returns (uint256) {... */\n    tag_10:\n      callvalue\n      dup1\n      iszero\n      tag_55\n      jumpi\n      0x00\n      dup1\n      revert\n    tag_55:\n      pop\n      tag_56\n      tag_57\n      jump\t// in\n    tag_56:\n      mload(0x40)\n      tag_58\n      swap2\n      swap1\n      tag_30\n      jump\t// in\n    tag_58:\n      mload(0x40)\n      dup1\n      swap2\n      sub\n      swap1\n      return\n        /* \"Renting.sol\":279:306  uint256 public rentalPeriod */\n    tag_11:\n      callvalue\n      dup1\n      iszero\n      tag_59\n      jumpi\n      0x00\n      dup1\n      revert\n    tag_59:\n      pop\n      tag_60\n      tag_61\n      jump\t// in\n    tag_60:\n      mload(0x40)\n      tag_62\n      swap2\n      swap1\n      tag_30\n      jump\t// in\n    tag_62:\n      mload(0x40)\n      dup1\n      swap2\n      sub\n      swap1\n      return\n        /* \"Renting.sol\":180:200  address public owner */\n    tag_12:\n      callvalue\n      dup1\n      iszero\n      tag_63\n      jumpi\n      0x00\n      dup1\n      revert\n    tag_63:\n      pop\n      tag_64\n      tag_65\n      jump\t// in\n    tag_64:\n      mload(0x40)\n      tag_66\n      swap2\n      swap1\n      tag_67\n      jump\t// in\n    tag_66:\n      mload(0x40)\n      dup1\n      swap2\n      sub\n      swap1\n      return\n        /* \"Renting.sol\":2577:2794  function payRent() external payable onlyTenant isRentalInactive checkQuantity isRentalFinished{... */\n    tag_13:\n      tag_68\n      tag_69\n      jump\t// in\n    tag_68:\n      stop\n        /* \"Renting.sol\":207:228  address public tenant */\n    tag_14:\n      callvalue\n      dup1\n      iszero\n      tag_70\n      jumpi\n      0x00\n      dup1\n      revert\n    tag_70:\n      pop\n      tag_71\n      tag_72\n      jump\t// in\n    tag_71:\n      mload(0x40)\n      tag_73\n      swap2\n      swap1\n      tag_67\n      jump\t// in\n    tag_73:\n      mload(0x40)\n      dup1\n      swap2\n      sub\n      swap1\n      return\n        /* \"Renting.sol\":408:431  string public assetName */\n    tag_15:\n      callvalue\n      dup1\n      iszero\n      tag_74\n      jumpi\n      0x00\n      dup1\n      revert\n    tag_74:\n      pop\n      tag_75\n      tag_76\n      jump\t// in\n    tag_75:\n      mload(0x40)\n      tag_77\n      swap2\n      swap1\n      tag_25\n      jump\t// in\n    tag_77:\n      mload(0x40)\n      dup1\n      swap2\n      sub\n      swap1\n      return\n        /* \"Renting.sol\":3360:3451  function RentalFinished() external view returns (bool) {... */\n    tag_16:\n      callvalue\n      dup1\n      iszero\n      tag_78\n      jumpi\n      0x00\n      dup1\n      revert\n    tag_78:\n      pop\n      tag_79\n      tag_80\n      jump\t// in\n    tag_79:\n      mload(0x40)\n      tag_81\n      swap2\n      swap1\n      tag_39\n      jump\t// in\n    tag_81:\n      mload(0x40)\n      dup1\n      swap2\n      sub\n      swap1\n      return\n        /* \"Renting.sol\":235:260  uint256 public rentAmount */\n    tag_17:\n      callvalue\n      dup1\n      iszero\n      tag_82\n      jumpi\n      0x00\n      dup1\n      revert\n    tag_82:\n      pop\n      tag_83\n      tag_84\n      jump\t// in\n    tag_83:\n      mload(0x40)\n      tag_85\n      swap2\n      swap1\n      tag_30\n      jump\t// in\n    tag_85:\n      mload(0x40)\n      dup1\n      swap2\n      sub\n      swap1\n      return\n        /* \"Renting.sol\":3148:3245  function getAssetName() external view returns (string memory) {... */\n    tag_23:\n        /* \"Renting.sol\":3195:3208  string memory */\n      0x60\n        /* \"Renting.sol\":3228:3237  assetName */\n      0x06\n        /* \"Renting.sol\":3221:3237  return assetName */\n      dup1\n      sload\n      tag_87\n      swap1\n      tag_88\n      jump\t// in\n    tag_87:\n      dup1\n      0x1f\n      add\n      0x20\n      dup1\n      swap2\n      div\n      mul\n      0x20\n      add\n      mload(0x40)\n      swap1\n      dup2\n      add\n      0x40\n      mstore\n      dup1\n      swap3\n      swap2\n      swap1\n      dup2\n      dup2\n      mstore\n      0x20\n      add\n      dup3\n      dup1\n      sload\n      tag_89\n      swap1\n      tag_88\n      jump\t// in\n    tag_89:\n      dup1\n      iszero\n      tag_90\n      jumpi\n      dup1\n      0x1f\n      lt\n      tag_91\n      jumpi\n      0x0100\n      dup1\n      dup4\n      sload\n      div\n      mul\n      dup4\n      mstore\n      swap2\n      0x20\n      add\n      swap2\n      jump(tag_90)\n    tag_91:\n      dup3\n      add\n      swap2\n      swap1\n      0x00\n      mstore\n      keccak256(0x00, 0x20)\n      swap1\n    tag_92:\n      dup2\n      sload\n      dup2\n      mstore\n      swap1\n      0x01\n      add\n      swap1\n      0x20\n      add\n      dup1\n      dup4\n      gt\n      tag_92\n      jumpi\n      dup3\n      swap1\n      sub\n      0x1f\n      and\n      dup3\n      add\n      swap2\n    tag_90:\n      pop\n      pop\n      pop\n      pop\n      pop\n      swap1\n      pop\n        /* \"Renting.sol\":3148:3245  function getAssetName() external view returns (string memory) {... */\n      swap1\n      jump\t// out\n        /* \"Renting.sol\":456:493  uint256 public depositPercentage = 20 */\n    tag_28:\n      sload(0x07)\n      dup2\n      jump\t// out\n        /* \"Renting.sol\":584:610  uint256 public totalAmount */\n    tag_33:\n      sload(0x09)\n      dup2\n      jump\t// out\n        /* \"Renting.sol\":381:401  bool public isActive */\n    tag_37:\n      0x05\n      0x00\n      swap1\n      sload\n      swap1\n      0x0100\n      exp\n      swap1\n      div\n      0xff\n      and\n      dup2\n      jump\t// out\n        /* \"Renting.sol\":3053:3140  function rentalStatus() external view returns (bool) {... */\n    tag_42:\n        /* \"Renting.sol\":3100:3104  bool */\n      0x00\n        /* \"Renting.sol\":3124:3132  isActive */\n      0x05\n      0x00\n      swap1\n      sload\n      swap1\n      0x0100\n      exp\n      swap1\n      div\n      0xff\n      and\n        /* \"Renting.sol\":3117:3132  return isActive */\n      swap1\n      pop\n        /* \"Renting.sol\":3053:3140  function rentalStatus() external view returns (bool) {... */\n      swap1\n      jump\t// out\n        /* \"Renting.sol\":530:558  uint256 public depositAmount */\n    tag_46:\n      sload(0x08)\n      dup2\n      jump\t// out\n        /* \"Renting.sol\":2802:3045  function completeRental() external onlyOwner isRentalActive {... */\n    tag_50:\n        /* \"Renting.sol\":1340:1345  owner */\n      0x00\n      dup1\n      sload\n      swap1\n      0x0100\n      exp\n      swap1\n      div\n      0xffffffffffffffffffffffffffffffffffffffff\n      and\n        /* \"Renting.sol\":1326:1345  msg.sender != owner */\n      0xffffffffffffffffffffffffffffffffffffffff\n      and\n        /* \"Renting.sol\":1326:1336  msg.sender */\n      caller\n        /* \"Renting.sol\":1326:1345  msg.sender != owner */\n      0xffffffffffffffffffffffffffffffffffffffff\n      and\n      eq\n        /* \"Renting.sol\":1322:1396  if (msg.sender != owner)  revert(\"Only the owner can perform this action\") */\n      tag_95\n      jumpi\n        /* \"Renting.sol\":1348:1396  revert(\"Only the owner can perform this action\") */\n      mload(0x40)\n      0x08c379a000000000000000000000000000000000000000000000000000000000\n      dup2\n      mstore\n      0x04\n      add\n      tag_96\n      swap1\n      tag_97\n      jump\t// in\n    tag_96:\n      mload(0x40)\n      dup1\n      swap2\n      sub\n      swap1\n      revert\n        /* \"Renting.sol\":1322:1396  if (msg.sender != owner)  revert(\"Only the owner can perform this action\") */\n    tag_95:\n        /* \"Renting.sol\":1606:1614  isActive */\n      0x05\n      0x00\n      swap1\n      sload\n      swap1\n      0x0100\n      exp\n      swap1\n      div\n      0xff\n      and\n        /* \"Renting.sol\":1601:1659  if (!isActive) revert(\"The rental contract is not active\") */\n      tag_99\n      jumpi\n        /* \"Renting.sol\":1616:1659  revert(\"The rental contract is not active\") */\n      mload(0x40)\n      0x08c379a000000000000000000000000000000000000000000000000000000000\n      dup2\n      mstore\n      0x04\n      add\n      tag_100\n      swap1\n      tag_101\n      jump\t// in\n    tag_100:\n      mload(0x40)\n      dup1\n      swap2\n      sub\n      swap1\n      revert\n        /* \"Renting.sol\":1601:1659  if (!isActive) revert(\"The rental contract is not active\") */\n    tag_99:\n        /* \"Renting.sol\":2896:2901  false */\n      0x00\n        /* \"Renting.sol\":2885:2893  isActive */\n      0x05\n      0x00\n        /* \"Renting.sol\":2885:2901  isActive = false */\n      0x0100\n      exp\n      dup2\n      sload\n      dup2\n      0xff\n      mul\n      not\n      and\n      swap1\n      dup4\n      iszero\n      iszero\n      mul\n      or\n      swap1\n      sstore\n      pop\n        /* \"Renting.sol\":2925:2929  true */\n      0x01\n        /* \"Renting.sol\":2912:2922  isFinished */\n      0x0a\n      0x00\n        /* \"Renting.sol\":2912:2929  isFinished = true */\n      0x0100\n      exp\n      dup2\n      sload\n      dup2\n      0xff\n      mul\n      not\n      and\n      swap1\n      dup4\n      iszero\n      iszero\n      mul\n      or\n      swap1\n      sstore\n      pop\n        /* \"Renting.sol\":2950:2956  tenant */\n      0x01\n      0x00\n      swap1\n      sload\n      swap1\n      0x0100\n      exp\n      swap1\n      div\n      0xffffffffffffffffffffffffffffffffffffffff\n      and\n        /* \"Renting.sol\":2942:2966  payable(tenant).transfer */\n      0xffffffffffffffffffffffffffffffffffffffff\n      and\n        /* \"Renting.sol\":2942:2981  payable(tenant).transfer(depositAmount) */\n      0x08fc\n        /* \"Renting.sol\":2967:2980  depositAmount */\n      sload(0x08)\n        /* \"Renting.sol\":2942:2981  payable(tenant).transfer(depositAmount) */\n      swap1\n      dup2\n      iszero\n      mul\n      swap1\n      mload(0x40)\n      0x00\n      mload(0x40)\n      dup1\n      dup4\n      sub\n      dup2\n      dup6\n      dup9\n      dup9\n      call\n      swap4\n      pop\n      pop\n      pop\n      pop\n      iszero\n      dup1\n      iszero\n      tag_104\n      jumpi\n      returndatasize\n      0x00\n      dup1\n      returndatacopy\n      revert(0x00, returndatasize)\n    tag_104:\n      pop\n        /* \"Renting.sol\":3015:3021  tenant */\n      0x01\n      0x00\n      swap1\n      sload\n      swap1\n      0x0100\n      exp\n      swap1\n      div\n      0xffffffffffffffffffffffffffffffffffffffff\n      and\n        /* \"Renting.sol\":2999:3037  RentalCompleted(tenant, depositAmount) */\n      0xffffffffffffffffffffffffffffffffffffffff\n      and\n      0xeedd444c80a4085394147f0c073e0eaa38424e2202f53fd968d52b23477945d1\n        /* \"Renting.sol\":3023:3036  depositAmount */\n      sload(0x08)\n        /* \"Renting.sol\":2999:3037  RentalCompleted(tenant, depositAmount) */\n      mload(0x40)\n      tag_105\n      swap2\n      swap1\n      tag_30\n      jump\t// in\n    tag_105:\n      mload(0x40)\n      dup1\n      swap2\n      sub\n      swap1\n      log2\n        /* \"Renting.sol\":2802:3045  function completeRental() external onlyOwner isRentalActive {... */\n      jump\t// out\n        /* \"Renting.sol\":336:360  uint256 public startTime */\n    tag_53:\n      sload(0x04)\n      dup2\n      jump\t// out\n        /* \"Renting.sol\":3253:3352  function getDepositAmount() external view returns (uint256) {... */\n    tag_57:\n        /* \"Renting.sol\":3304:3311  uint256 */\n      0x00\n        /* \"Renting.sol\":3331:3344  depositAmount */\n      sload(0x08)\n        /* \"Renting.sol\":3324:3344  return depositAmount */\n      swap1\n      pop\n        /* \"Renting.sol\":3253:3352  function getDepositAmount() external view returns (uint256) {... */\n      swap1\n      jump\t// out\n        /* \"Renting.sol\":279:306  uint256 public rentalPeriod */\n    tag_61:\n      sload(0x03)\n      dup2\n      jump\t// out\n        /* \"Renting.sol\":180:200  address public owner */\n    tag_65:\n      0x00\n      dup1\n      sload\n      swap1\n      0x0100\n      exp\n      swap1\n      div\n      0xffffffffffffffffffffffffffffffffffffffff\n      and\n      dup2\n      jump\t// out\n        /* \"Renting.sol\":2577:2794  function payRent() external payable onlyTenant isRentalInactive checkQuantity isRentalFinished{... */\n    tag_69:\n        /* \"Renting.sol\":1478:1484  tenant */\n      0x01\n      0x00\n      swap1\n      sload\n      swap1\n      0x0100\n      exp\n      swap1\n      div\n      0xffffffffffffffffffffffffffffffffffffffff\n      and\n        /* \"Renting.sol\":1464:1484  msg.sender != tenant */\n      0xffffffffffffffffffffffffffffffffffffffff\n      and\n        /* \"Renting.sol\":1464:1474  msg.sender */\n      caller\n        /* \"Renting.sol\":1464:1484  msg.sender != tenant */\n      0xffffffffffffffffffffffffffffffffffffffff\n      and\n      eq\n        /* \"Renting.sol\":1460:1535  if (msg.sender != tenant) revert(\"Only the tenant can perform this action\") */\n      tag_108\n      jumpi\n        /* \"Renting.sol\":1486:1535  revert(\"Only the tenant can perform this action\") */\n      mload(0x40)\n      0x08c379a000000000000000000000000000000000000000000000000000000000\n      dup2\n      mstore\n      0x04\n      add\n      tag_109\n      swap1\n      tag_110\n      jump\t// in\n    tag_109:\n      mload(0x40)\n      dup1\n      swap2\n      sub\n      swap1\n      revert\n        /* \"Renting.sol\":1460:1535  if (msg.sender != tenant) revert(\"Only the tenant can perform this action\") */\n    tag_108:\n        /* \"Renting.sol\":1735:1743  isActive */\n      0x05\n      0x00\n      swap1\n      sload\n      swap1\n      0x0100\n      exp\n      swap1\n      div\n      0xff\n      and\n        /* \"Renting.sol\":1731:1784  if (isActive) revert(\"The rental contract is active\") */\n      iszero\n      tag_112\n      jumpi\n        /* \"Renting.sol\":1745:1784  revert(\"The rental contract is active\") */\n      mload(0x40)\n      0x08c379a000000000000000000000000000000000000000000000000000000000\n      dup2\n      mstore\n      0x04\n      add\n      tag_113\n      swap1\n      tag_114\n      jump\t// in\n    tag_113:\n      mload(0x40)\n      dup1\n      swap2\n      sub\n      swap1\n      revert\n        /* \"Renting.sol\":1731:1784  if (isActive) revert(\"The rental contract is active\") */\n    tag_112:\n        /* \"Renting.sol\":2024:2035  totalAmount */\n      sload(0x09)\n        /* \"Renting.sol\":2011:2020  msg.value */\n      callvalue\n        /* \"Renting.sol\":2011:2035  msg.value != totalAmount */\n      eq\n        /* \"Renting.sol\":2007:2095  if (msg.value != totalAmount) revert(\"Incorrect payment amount. Must be rent + deposit\") */\n      tag_116\n      jumpi\n        /* \"Renting.sol\":2037:2095  revert(\"Incorrect payment amount. Must be rent + deposit\") */\n      mload(0x40)\n      0x08c379a000000000000000000000000000000000000000000000000000000000\n      dup2\n      mstore\n      0x04\n      add\n      tag_117\n      swap1\n      tag_118\n      jump\t// in\n    tag_117:\n      mload(0x40)\n      dup1\n      swap2\n      sub\n      swap1\n      revert\n        /* \"Renting.sol\":2007:2095  if (msg.value != totalAmount) revert(\"Incorrect payment amount. Must be rent + deposit\") */\n    tag_116:\n        /* \"Renting.sol\":2329:2339  isFinished */\n      0x0a\n      0x00\n      swap1\n      sload\n      swap1\n      0x0100\n      exp\n      swap1\n      div\n      0xff\n      and\n        /* \"Renting.sol\":2325:2369  if (isFinished) revert(\"Rental is finished\") */\n      iszero\n      tag_120\n      jumpi\n        /* \"Renting.sol\":2341:2369  revert(\"Rental is finished\") */\n      mload(0x40)\n      0x08c379a000000000000000000000000000000000000000000000000000000000\n      dup2\n      mstore\n      0x04\n      add\n      tag_121\n      swap1\n      tag_122\n      jump\t// in\n    tag_121:\n      mload(0x40)\n      dup1\n      swap2\n      sub\n      swap1\n      revert\n        /* \"Renting.sol\":2325:2369  if (isFinished) revert(\"Rental is finished\") */\n    tag_120:\n        /* \"Renting.sol\":2695:2699  true */\n      0x01\n        /* \"Renting.sol\":2684:2692  isActive */\n      0x05\n      0x00\n        /* \"Renting.sol\":2684:2699  isActive = true */\n      0x0100\n      exp\n      dup2\n      sload\n      dup2\n      0xff\n      mul\n      not\n      and\n      swap1\n      dup4\n      iszero\n      iszero\n      mul\n      or\n      swap1\n      sstore\n      pop\n        /* \"Renting.sol\":2722:2737  block.timestamp */\n      timestamp\n        /* \"Renting.sol\":2710:2719  startTime */\n      0x04\n        /* \"Renting.sol\":2710:2737  startTime = block.timestamp */\n      dup2\n      swap1\n      sstore\n      pop\n        /* \"Renting.sol\":2764:2774  msg.sender */\n      caller\n        /* \"Renting.sol\":2755:2786  RentPaid(msg.sender, msg.value) */\n      0xffffffffffffffffffffffffffffffffffffffff\n      and\n      0x03b5033869479e8a98af42b272f05933f60489fe9fb43d63e11a6c31f3fa7474\n        /* \"Renting.sol\":2776:2785  msg.value */\n      callvalue\n        /* \"Renting.sol\":2755:2786  RentPaid(msg.sender, msg.value) */\n      mload(0x40)\n      tag_124\n      swap2\n      swap1\n      tag_30\n      jump\t// in\n    tag_124:\n      mload(0x40)\n      dup1\n      swap2\n      sub\n      swap1\n      log2\n        /* \"Renting.sol\":2577:2794  function payRent() external payable onlyTenant isRentalInactive checkQuantity isRentalFinished{... */\n      jump\t// out\n        /* \"Renting.sol\":207:228  address public tenant */\n    tag_72:\n      0x01\n      0x00\n      swap1\n      sload\n      swap1\n      0x0100\n      exp\n      swap1\n      div\n      0xffffffffffffffffffffffffffffffffffffffff\n      and\n      dup2\n      jump\t// out\n        /* \"Renting.sol\":408:431  string public assetName */\n    tag_76:\n      0x06\n      dup1\n      sload\n      tag_125\n      swap1\n      tag_88\n      jump\t// in\n    tag_125:\n      dup1\n      0x1f\n      add\n      0x20\n      dup1\n      swap2\n      div\n      mul\n      0x20\n      add\n      mload(0x40)\n      swap1\n      dup2\n      add\n      0x40\n      mstore\n      dup1\n      swap3\n      swap2\n      swap1\n      dup2\n      dup2\n      mstore\n      0x20\n      add\n      dup3\n      dup1\n      sload\n      tag_126\n      swap1\n      tag_88\n      jump\t// in\n    tag_126:\n      dup1\n      iszero\n      tag_127\n      jumpi\n      dup1\n      0x1f\n      lt\n      tag_128\n      jumpi\n      0x0100\n      dup1\n      dup4\n      sload\n      div\n      mul\n      dup4\n      mstore\n      swap2\n      0x20\n      add\n      swap2\n      jump(tag_127)\n    tag_128:\n      dup3\n      add\n      swap2\n      swap1\n      0x00\n      mstore\n      keccak256(0x00, 0x20)\n      swap1\n    tag_129:\n      dup2\n      sload\n      dup2\n      mstore\n      swap1\n      0x01\n      add\n      swap1\n      0x20\n      add\n      dup1\n      dup4\n      gt\n      tag_129\n      jumpi\n      dup3\n      swap1\n      sub\n      0x1f\n      and\n      dup3\n      add\n      swap2\n    tag_127:\n      pop\n      pop\n      pop\n      pop\n      pop\n      dup2\n      jump\t// out\n        /* \"Renting.sol\":3360:3451  function RentalFinished() external view returns (bool) {... */\n    tag_80:\n        /* \"Renting.sol\":3409:3413  bool */\n      0x00\n        /* \"Renting.sol\":3433:3443  isFinished */\n      0x0a\n      0x00\n      swap1\n      sload\n      swap1\n      0x0100\n      exp\n      swap1\n      div\n      0xff\n      and\n        /* \"Renting.sol\":3426:3443  return isFinished */\n      swap1\n      pop\n        /* \"Renting.sol\":3360:3451  function RentalFinished() external view returns (bool) {... */\n      swap1\n      jump\t// out\n        /* \"Renting.sol\":235:260  uint256 public rentAmount */\n    tag_84:\n      sload(0x02)\n      dup2\n      jump\t// out\n        /* \"#utility.yul\":7:106   */\n    tag_131:\n        /* \"#utility.yul\":59:65   */\n      0x00\n        /* \"#utility.yul\":93:98   */\n      dup2\n        /* \"#utility.yul\":87:99   */\n      mload\n        /* \"#utility.yul\":77:99   */\n      swap1\n      pop\n        /* \"#utility.yul\":7:106   */\n      swap2\n      swap1\n      pop\n      jump\t// out\n        /* \"#utility.yul\":112:281   */\n    tag_132:\n        /* \"#utility.yul\":196:207   */\n      0x00\n        /* \"#utility.yul\":230:236   */\n      dup3\n        /* \"#utility.yul\":225:228   */\n      dup3\n        /* \"#utility.yul\":218:237   */\n      mstore\n        /* \"#utility.yul\":270:274   */\n      0x20\n        /* \"#utility.yul\":265:268   */\n      dup3\n        /* \"#utility.yul\":261:275   */\n      add\n        /* \"#utility.yul\":246:275   */\n      swap1\n      pop\n        /* \"#utility.yul\":112:281   */\n      swap3\n      swap2\n      pop\n      pop\n      jump\t// out\n        /* \"#utility.yul\":287:533   */\n    tag_133:\n        /* \"#utility.yul\":368:369   */\n      0x00\n        /* \"#utility.yul\":378:491   */\n    tag_160:\n        /* \"#utility.yul\":392:398   */\n      dup4\n        /* \"#utility.yul\":389:390   */\n      dup2\n        /* \"#utility.yul\":386:399   */\n      lt\n        /* \"#utility.yul\":378:491   */\n      iszero\n      tag_162\n      jumpi\n        /* \"#utility.yul\":477:478   */\n      dup1\n        /* \"#utility.yul\":472:475   */\n      dup3\n        /* \"#utility.yul\":468:479   */\n      add\n        /* \"#utility.yul\":462:480   */\n      mload\n        /* \"#utility.yul\":458:459   */\n      dup2\n        /* \"#utility.yul\":453:456   */\n      dup5\n        /* \"#utility.yul\":449:460   */\n      add\n        /* \"#utility.yul\":442:481   */\n      mstore\n        /* \"#utility.yul\":414:416   */\n      0x20\n        /* \"#utility.yul\":411:412   */\n      dup2\n        /* \"#utility.yul\":407:417   */\n      add\n        /* \"#utility.yul\":402:417   */\n      swap1\n      pop\n        /* \"#utility.yul\":378:491   */\n      jump(tag_160)\n    tag_162:\n        /* \"#utility.yul\":525:526   */\n      0x00\n        /* \"#utility.yul\":516:522   */\n      dup5\n        /* \"#utility.yul\":511:514   */\n      dup5\n        /* \"#utility.yul\":507:523   */\n      add\n        /* \"#utility.yul\":500:527   */\n      mstore\n        /* \"#utility.yul\":349:533   */\n      pop\n        /* \"#utility.yul\":287:533   */\n      pop\n      pop\n      pop\n      jump\t// out\n        /* \"#utility.yul\":539:641   */\n    tag_134:\n        /* \"#utility.yul\":580:586   */\n      0x00\n        /* \"#utility.yul\":631:633   */\n      0x1f\n        /* \"#utility.yul\":627:634   */\n      not\n        /* \"#utility.yul\":622:624   */\n      0x1f\n        /* \"#utility.yul\":615:620   */\n      dup4\n        /* \"#utility.yul\":611:625   */\n      add\n        /* \"#utility.yul\":607:635   */\n      and\n        /* \"#utility.yul\":597:635   */\n      swap1\n      pop\n        /* \"#utility.yul\":539:641   */\n      swap2\n      swap1\n      pop\n      jump\t// out\n        /* \"#utility.yul\":647:1024   */\n    tag_135:\n        /* \"#utility.yul\":735:738   */\n      0x00\n        /* \"#utility.yul\":763:802   */\n      tag_165\n        /* \"#utility.yul\":796:801   */\n      dup3\n        /* \"#utility.yul\":763:802   */\n      tag_131\n      jump\t// in\n    tag_165:\n        /* \"#utility.yul\":818:889   */\n      tag_166\n        /* \"#utility.yul\":882:888   */\n      dup2\n        /* \"#utility.yul\":877:880   */\n      dup6\n        /* \"#utility.yul\":818:889   */\n      tag_132\n      jump\t// in\n    tag_166:\n        /* \"#utility.yul\":811:889   */\n      swap4\n      pop\n        /* \"#utility.yul\":898:963   */\n      tag_167\n        /* \"#utility.yul\":956:962   */\n      dup2\n        /* \"#utility.yul\":951:954   */\n      dup6\n        /* \"#utility.yul\":944:948   */\n      0x20\n        /* \"#utility.yul\":937:942   */\n      dup7\n        /* \"#utility.yul\":933:949   */\n      add\n        /* \"#utility.yul\":898:963   */\n      tag_133\n      jump\t// in\n    tag_167:\n        /* \"#utility.yul\":988:1017   */\n      tag_168\n        /* \"#utility.yul\":1010:1016   */\n      dup2\n        /* \"#utility.yul\":988:1017   */\n      tag_134\n      jump\t// in\n    tag_168:\n        /* \"#utility.yul\":983:986   */\n      dup5\n        /* \"#utility.yul\":979:1018   */\n      add\n        /* \"#utility.yul\":972:1018   */\n      swap2\n      pop\n        /* \"#utility.yul\":739:1024   */\n      pop\n        /* \"#utility.yul\":647:1024   */\n      swap3\n      swap2\n      pop\n      pop\n      jump\t// out\n        /* \"#utility.yul\":1030:1343   */\n    tag_25:\n        /* \"#utility.yul\":1143:1147   */\n      0x00\n        /* \"#utility.yul\":1181:1183   */\n      0x20\n        /* \"#utility.yul\":1170:1179   */\n      dup3\n        /* \"#utility.yul\":1166:1184   */\n      add\n        /* \"#utility.yul\":1158:1184   */\n      swap1\n      pop\n        /* \"#utility.yul\":1230:1239   */\n      dup2\n        /* \"#utility.yul\":1224:1228   */\n      dup2\n        /* \"#utility.yul\":1220:1240   */\n      sub\n        /* \"#utility.yul\":1216:1217   */\n      0x00\n        /* \"#utility.yul\":1205:1214   */\n      dup4\n        /* \"#utility.yul\":1201:1218   */\n      add\n        /* \"#utility.yul\":1194:1241   */\n      mstore\n        /* \"#utility.yul\":1258:1336   */\n      tag_170\n        /* \"#utility.yul\":1331:1335   */\n      dup2\n        /* \"#utility.yul\":1322:1328   */\n      dup5\n        /* \"#utility.yul\":1258:1336   */\n      tag_135\n      jump\t// in\n    tag_170:\n        /* \"#utility.yul\":1250:1336   */\n      swap1\n      pop\n        /* \"#utility.yul\":1030:1343   */\n      swap3\n      swap2\n      pop\n      pop\n      jump\t// out\n        /* \"#utility.yul\":1349:1426   */\n    tag_136:\n        /* \"#utility.yul\":1386:1393   */\n      0x00\n        /* \"#utility.yul\":1415:1420   */\n      dup2\n        /* \"#utility.yul\":1404:1420   */\n      swap1\n      pop\n        /* \"#utility.yul\":1349:1426   */\n      swap2\n      swap1\n      pop\n      jump\t// out\n        /* \"#utility.yul\":1432:1550   */\n    tag_137:\n        /* \"#utility.yul\":1519:1543   */\n      tag_173\n        /* \"#utility.yul\":1537:1542   */\n      dup2\n        /* \"#utility.yul\":1519:1543   */\n      tag_136\n      jump\t// in\n    tag_173:\n        /* \"#utility.yul\":1514:1517   */\n      dup3\n        /* \"#utility.yul\":1507:1544   */\n      mstore\n        /* \"#utility.yul\":1432:1550   */\n      pop\n      pop\n      jump\t// out\n        /* \"#utility.yul\":1556:1778   */\n    tag_30:\n        /* \"#utility.yul\":1649:1653   */\n      0x00\n        /* \"#utility.yul\":1687:1689   */\n      0x20\n        /* \"#utility.yul\":1676:1685   */\n      dup3\n        /* \"#utility.yul\":1672:1690   */\n      add\n        /* \"#utility.yul\":1664:1690   */\n      swap1\n      pop\n        /* \"#utility.yul\":1700:1771   */\n      tag_175\n        /* \"#utility.yul\":1768:1769   */\n      0x00\n        /* \"#utility.yul\":1757:1766   */\n      dup4\n        /* \"#utility.yul\":1753:1770   */\n      add\n        /* \"#utility.yul\":1744:1750   */\n      dup5\n        /* \"#utility.yul\":1700:1771   */\n      tag_137\n      jump\t// in\n    tag_175:\n        /* \"#utility.yul\":1556:1778   */\n      swap3\n      swap2\n      pop\n      pop\n      jump\t// out\n        /* \"#utility.yul\":1784:1874   */\n    tag_138:\n        /* \"#utility.yul\":1818:1825   */\n      0x00\n        /* \"#utility.yul\":1861:1866   */\n      dup2\n        /* \"#utility.yul\":1854:1867   */\n      iszero\n        /* \"#utility.yul\":1847:1868   */\n      iszero\n        /* \"#utility.yul\":1836:1868   */\n      swap1\n      pop\n        /* \"#utility.yul\":1784:1874   */\n      swap2\n      swap1\n      pop\n      jump\t// out\n        /* \"#utility.yul\":1880:1989   */\n    tag_139:\n        /* \"#utility.yul\":1961:1982   */\n      tag_178\n        /* \"#utility.yul\":1976:1981   */\n      dup2\n        /* \"#utility.yul\":1961:1982   */\n      tag_138\n      jump\t// in\n    tag_178:\n        /* \"#utility.yul\":1956:1959   */\n      dup3\n        /* \"#utility.yul\":1949:1983   */\n      mstore\n        /* \"#utility.yul\":1880:1989   */\n      pop\n      pop\n      jump\t// out\n        /* \"#utility.yul\":1995:2205   */\n    tag_39:\n        /* \"#utility.yul\":2082:2086   */\n      0x00\n        /* \"#utility.yul\":2120:2122   */\n      0x20\n        /* \"#utility.yul\":2109:2118   */\n      dup3\n        /* \"#utility.yul\":2105:2123   */\n      add\n        /* \"#utility.yul\":2097:2123   */\n      swap1\n      pop\n        /* \"#utility.yul\":2133:2198   */\n      tag_180\n        /* \"#utility.yul\":2195:2196   */\n      0x00\n        /* \"#utility.yul\":2184:2193   */\n      dup4\n        /* \"#utility.yul\":2180:2197   */\n      add\n        /* \"#utility.yul\":2171:2177   */\n      dup5\n        /* \"#utility.yul\":2133:2198   */\n      tag_139\n      jump\t// in\n    tag_180:\n        /* \"#utility.yul\":1995:2205   */\n      swap3\n      swap2\n      pop\n      pop\n      jump\t// out\n        /* \"#utility.yul\":2211:2337   */\n    tag_140:\n        /* \"#utility.yul\":2248:2255   */\n      0x00\n        /* \"#utility.yul\":2288:2330   */\n      0xffffffffffffffffffffffffffffffffffffffff\n        /* \"#utility.yul\":2281:2286   */\n      dup3\n        /* \"#utility.yul\":2277:2331   */\n      and\n        /* \"#utility.yul\":2266:2331   */\n      swap1\n      pop\n        /* \"#utility.yul\":2211:2337   */\n      swap2\n      swap1\n      pop\n      jump\t// out\n        /* \"#utility.yul\":2343:2439   */\n    tag_141:\n        /* \"#utility.yul\":2380:2387   */\n      0x00\n        /* \"#utility.yul\":2409:2433   */\n      tag_183\n        /* \"#utility.yul\":2427:2432   */\n      dup3\n        /* \"#utility.yul\":2409:2433   */\n      tag_140\n      jump\t// in\n    tag_183:\n        /* \"#utility.yul\":2398:2433   */\n      swap1\n      pop\n        /* \"#utility.yul\":2343:2439   */\n      swap2\n      swap1\n      pop\n      jump\t// out\n        /* \"#utility.yul\":2445:2563   */\n    tag_142:\n        /* \"#utility.yul\":2532:2556   */\n      tag_185\n        /* \"#utility.yul\":2550:2555   */\n      dup2\n        /* \"#utility.yul\":2532:2556   */\n      tag_141\n      jump\t// in\n    tag_185:\n        /* \"#utility.yul\":2527:2530   */\n      dup3\n        /* \"#utility.yul\":2520:2557   */\n      mstore\n        /* \"#utility.yul\":2445:2563   */\n      pop\n      pop\n      jump\t// out\n        /* \"#utility.yul\":2569:2791   */\n    tag_67:\n        /* \"#utility.yul\":2662:2666   */\n      0x00\n        /* \"#utility.yul\":2700:2702   */\n      0x20\n        /* \"#utility.yul\":2689:2698   */\n      dup3\n        /* \"#utility.yul\":2685:2703   */\n      add\n        /* \"#utility.yul\":2677:2703   */\n      swap1\n      pop\n        /* \"#utility.yul\":2713:2784   */\n      tag_187\n        /* \"#utility.yul\":2781:2782   */\n      0x00\n        /* \"#utility.yul\":2770:2779   */\n      dup4\n        /* \"#utility.yul\":2766:2783   */\n      add\n        /* \"#utility.yul\":2757:2763   */\n      dup5\n        /* \"#utility.yul\":2713:2784   */\n      tag_142\n      jump\t// in\n    tag_187:\n        /* \"#utility.yul\":2569:2791   */\n      swap3\n      swap2\n      pop\n      pop\n      jump\t// out\n        /* \"#utility.yul\":2797:2977   */\n    tag_143:\n        /* \"#utility.yul\":2845:2922   */\n      0x4e487b7100000000000000000000000000000000000000000000000000000000\n        /* \"#utility.yul\":2842:2843   */\n      0x00\n        /* \"#utility.yul\":2835:2923   */\n      mstore\n        /* \"#utility.yul\":2942:2946   */\n      0x22\n        /* \"#utility.yul\":2939:2940   */\n      0x04\n        /* \"#utility.yul\":2932:2947   */\n      mstore\n        /* \"#utility.yul\":2966:2970   */\n      0x24\n        /* \"#utility.yul\":2963:2964   */\n      0x00\n        /* \"#utility.yul\":2956:2971   */\n      revert\n        /* \"#utility.yul\":2983:3303   */\n    tag_88:\n        /* \"#utility.yul\":3027:3033   */\n      0x00\n        /* \"#utility.yul\":3064:3065   */\n      0x02\n        /* \"#utility.yul\":3058:3062   */\n      dup3\n        /* \"#utility.yul\":3054:3066   */\n      div\n        /* \"#utility.yul\":3044:3066   */\n      swap1\n      pop\n        /* \"#utility.yul\":3111:3112   */\n      0x01\n        /* \"#utility.yul\":3105:3109   */\n      dup3\n        /* \"#utility.yul\":3101:3113   */\n      and\n        /* \"#utility.yul\":3132:3150   */\n      dup1\n        /* \"#utility.yul\":3122:3203   */\n      tag_190\n      jumpi\n        /* \"#utility.yul\":3188:3192   */\n      0x7f\n        /* \"#utility.yul\":3180:3186   */\n      dup3\n        /* \"#utility.yul\":3176:3193   */\n      and\n        /* \"#utility.yul\":3166:3193   */\n      swap2\n      pop\n        /* \"#utility.yul\":3122:3203   */\n    tag_190:\n        /* \"#utility.yul\":3250:3252   */\n      0x20\n        /* \"#utility.yul\":3242:3248   */\n      dup3\n        /* \"#utility.yul\":3239:3253   */\n      lt\n        /* \"#utility.yul\":3219:3237   */\n      dup2\n        /* \"#utility.yul\":3216:3254   */\n      sub\n        /* \"#utility.yul\":3213:3297   */\n      tag_191\n      jumpi\n        /* \"#utility.yul\":3269:3287   */\n      tag_192\n      tag_143\n      jump\t// in\n    tag_192:\n        /* \"#utility.yul\":3213:3297   */\n    tag_191:\n        /* \"#utility.yul\":3034:3303   */\n      pop\n        /* \"#utility.yul\":2983:3303   */\n      swap2\n      swap1\n      pop\n      jump\t// out\n        /* \"#utility.yul\":3309:3534   */\n    tag_144:\n        /* \"#utility.yul\":3449:3483   */\n      0x4f6e6c7920746865206f776e65722063616e20706572666f726d207468697320\n        /* \"#utility.yul\":3445:3446   */\n      0x00\n        /* \"#utility.yul\":3437:3443   */\n      dup3\n        /* \"#utility.yul\":3433:3447   */\n      add\n        /* \"#utility.yul\":3426:3484   */\n      mstore\n        /* \"#utility.yul\":3518:3526   */\n      0x616374696f6e0000000000000000000000000000000000000000000000000000\n        /* \"#utility.yul\":3513:3515   */\n      0x20\n        /* \"#utility.yul\":3505:3511   */\n      dup3\n        /* \"#utility.yul\":3501:3516   */\n      add\n        /* \"#utility.yul\":3494:3527   */\n      mstore\n        /* \"#utility.yul\":3309:3534   */\n      pop\n      jump\t// out\n        /* \"#utility.yul\":3540:3906   */\n    tag_145:\n        /* \"#utility.yul\":3682:3685   */\n      0x00\n        /* \"#utility.yul\":3703:3770   */\n      tag_195\n        /* \"#utility.yul\":3767:3769   */\n      0x26\n        /* \"#utility.yul\":3762:3765   */\n      dup4\n        /* \"#utility.yul\":3703:3770   */\n      tag_132\n      jump\t// in\n    tag_195:\n        /* \"#utility.yul\":3696:3770   */\n      swap2\n      pop\n        /* \"#utility.yul\":3779:3872   */\n      tag_196\n        /* \"#utility.yul\":3868:3871   */\n      dup3\n        /* \"#utility.yul\":3779:3872   */\n      tag_144\n      jump\t// in\n    tag_196:\n        /* \"#utility.yul\":3897:3899   */\n      0x40\n        /* \"#utility.yul\":3892:3895   */\n      dup3\n        /* \"#utility.yul\":3888:3900   */\n      add\n        /* \"#utility.yul\":3881:3900   */\n      swap1\n      pop\n        /* \"#utility.yul\":3540:3906   */\n      swap2\n      swap1\n      pop\n      jump\t// out\n        /* \"#utility.yul\":3912:4331   */\n    tag_97:\n        /* \"#utility.yul\":4078:4082   */\n      0x00\n        /* \"#utility.yul\":4116:4118   */\n      0x20\n        /* \"#utility.yul\":4105:4114   */\n      dup3\n        /* \"#utility.yul\":4101:4119   */\n      add\n        /* \"#utility.yul\":4093:4119   */\n      swap1\n      pop\n        /* \"#utility.yul\":4165:4174   */\n      dup2\n        /* \"#utility.yul\":4159:4163   */\n      dup2\n        /* \"#utility.yul\":4155:4175   */\n      sub\n        /* \"#utility.yul\":4151:4152   */\n      0x00\n        /* \"#utility.yul\":4140:4149   */\n      dup4\n        /* \"#utility.yul\":4136:4153   */\n      add\n        /* \"#utility.yul\":4129:4176   */\n      mstore\n        /* \"#utility.yul\":4193:4324   */\n      tag_198\n        /* \"#utility.yul\":4319:4323   */\n      dup2\n        /* \"#utility.yul\":4193:4324   */\n      tag_145\n      jump\t// in\n    tag_198:\n        /* \"#utility.yul\":4185:4324   */\n      swap1\n      pop\n        /* \"#utility.yul\":3912:4331   */\n      swap2\n      swap1\n      pop\n      jump\t// out\n        /* \"#utility.yul\":4337:4557   */\n    tag_146:\n        /* \"#utility.yul\":4477:4511   */\n      0x5468652072656e74616c20636f6e7472616374206973206e6f74206163746976\n        /* \"#utility.yul\":4473:4474   */\n      0x00\n        /* \"#utility.yul\":4465:4471   */\n      dup3\n        /* \"#utility.yul\":4461:4475   */\n      add\n        /* \"#utility.yul\":4454:4512   */\n      mstore\n        /* \"#utility.yul\":4546:4549   */\n      0x6500000000000000000000000000000000000000000000000000000000000000\n        /* \"#utility.yul\":4541:4543   */\n      0x20\n        /* \"#utility.yul\":4533:4539   */\n      dup3\n        /* \"#utility.yul\":4529:4544   */\n      add\n        /* \"#utility.yul\":4522:4550   */\n      mstore\n        /* \"#utility.yul\":4337:4557   */\n      pop\n      jump\t// out\n        /* \"#utility.yul\":4563:4929   */\n    tag_147:\n        /* \"#utility.yul\":4705:4708   */\n      0x00\n        /* \"#utility.yul\":4726:4793   */\n      tag_201\n        /* \"#utility.yul\":4790:4792   */\n      0x21\n        /* \"#utility.yul\":4785:4788   */\n      dup4\n        /* \"#utility.yul\":4726:4793   */\n      tag_132\n      jump\t// in\n    tag_201:\n        /* \"#utility.yul\":4719:4793   */\n      swap2\n      pop\n        /* \"#utility.yul\":4802:4895   */\n      tag_202\n        /* \"#utility.yul\":4891:4894   */\n      dup3\n        /* \"#utility.yul\":4802:4895   */\n      tag_146\n      jump\t// in\n    tag_202:\n        /* \"#utility.yul\":4920:4922   */\n      0x40\n        /* \"#utility.yul\":4915:4918   */\n      dup3\n        /* \"#utility.yul\":4911:4923   */\n      add\n        /* \"#utility.yul\":4904:4923   */\n      swap1\n      pop\n        /* \"#utility.yul\":4563:4929   */\n      swap2\n      swap1\n      pop\n      jump\t// out\n        /* \"#utility.yul\":4935:5354   */\n    tag_101:\n        /* \"#utility.yul\":5101:5105   */\n      0x00\n        /* \"#utility.yul\":5139:5141   */\n      0x20\n        /* \"#utility.yul\":5128:5137   */\n      dup3\n        /* \"#utility.yul\":5124:5142   */\n      add\n        /* \"#utility.yul\":5116:5142   */\n      swap1\n      pop\n        /* \"#utility.yul\":5188:5197   */\n      dup2\n        /* \"#utility.yul\":5182:5186   */\n      dup2\n        /* \"#utility.yul\":5178:5198   */\n      sub\n        /* \"#utility.yul\":5174:5175   */\n      0x00\n        /* \"#utility.yul\":5163:5172   */\n      dup4\n        /* \"#utility.yul\":5159:5176   */\n      add\n        /* \"#utility.yul\":5152:5199   */\n      mstore\n        /* \"#utility.yul\":5216:5347   */\n      tag_204\n        /* \"#utility.yul\":5342:5346   */\n      dup2\n        /* \"#utility.yul\":5216:5347   */\n      tag_147\n      jump\t// in\n    tag_204:\n        /* \"#utility.yul\":5208:5347   */\n      swap1\n      pop\n        /* \"#utility.yul\":4935:5354   */\n      swap2\n      swap1\n      pop\n      jump\t// out\n        /* \"#utility.yul\":5360:5586   */\n    tag_148:\n        /* \"#utility.yul\":5500:5534   */\n      0x4f6e6c79207468652074656e616e742063616e20706572666f726d2074686973\n        /* \"#utility.yul\":5496:5497   */\n      0x00\n        /* \"#utility.yul\":5488:5494   */\n      dup3\n        /* \"#utility.yul\":5484:5498   */\n      add\n        /* \"#utility.yul\":5477:5535   */\n      mstore\n        /* \"#utility.yul\":5569:5578   */\n      0x20616374696f6e00000000000000000000000000000000000000000000000000\n        /* \"#utility.yul\":5564:5566   */\n      0x20\n        /* \"#utility.yul\":5556:5562   */\n      dup3\n        /* \"#utility.yul\":5552:5567   */\n      add\n        /* \"#utility.yul\":5545:5579   */\n      mstore\n        /* \"#utility.yul\":5360:5586   */\n      pop\n      jump\t// out\n        /* \"#utility.yul\":5592:5958   */\n    tag_149:\n        /* \"#utility.yul\":5734:5737   */\n      0x00\n        /* \"#utility.yul\":5755:5822   */\n      tag_207\n        /* \"#utility.yul\":5819:5821   */\n      0x27\n        /* \"#utility.yul\":5814:5817   */\n      dup4\n        /* \"#utility.yul\":5755:5822   */\n      tag_132\n      jump\t// in\n    tag_207:\n        /* \"#utility.yul\":5748:5822   */\n      swap2\n      pop\n        /* \"#utility.yul\":5831:5924   */\n      tag_208\n        /* \"#utility.yul\":5920:5923   */\n      dup3\n        /* \"#utility.yul\":5831:5924   */\n      tag_148\n      jump\t// in\n    tag_208:\n        /* \"#utility.yul\":5949:5951   */\n      0x40\n        /* \"#utility.yul\":5944:5947   */\n      dup3\n        /* \"#utility.yul\":5940:5952   */\n      add\n        /* \"#utility.yul\":5933:5952   */\n      swap1\n      pop\n        /* \"#utility.yul\":5592:5958   */\n      swap2\n      swap1\n      pop\n      jump\t// out\n        /* \"#utility.yul\":5964:6383   */\n    tag_110:\n        /* \"#utility.yul\":6130:6134   */\n      0x00\n        /* \"#utility.yul\":6168:6170   */\n      0x20\n        /* \"#utility.yul\":6157:6166   */\n      dup3\n        /* \"#utility.yul\":6153:6171   */\n      add\n        /* \"#utility.yul\":6145:6171   */\n      swap1\n      pop\n        /* \"#utility.yul\":6217:6226   */\n      dup2\n        /* \"#utility.yul\":6211:6215   */\n      dup2\n        /* \"#utility.yul\":6207:6227   */\n      sub\n        /* \"#utility.yul\":6203:6204   */\n      0x00\n        /* \"#utility.yul\":6192:6201   */\n      dup4\n        /* \"#utility.yul\":6188:6205   */\n      add\n        /* \"#utility.yul\":6181:6228   */\n      mstore\n        /* \"#utility.yul\":6245:6376   */\n      tag_210\n        /* \"#utility.yul\":6371:6375   */\n      dup2\n        /* \"#utility.yul\":6245:6376   */\n      tag_149\n      jump\t// in\n    tag_210:\n        /* \"#utility.yul\":6237:6376   */\n      swap1\n      pop\n        /* \"#utility.yul\":5964:6383   */\n      swap2\n      swap1\n      pop\n      jump\t// out\n        /* \"#utility.yul\":6389:6568   */\n    tag_150:\n        /* \"#utility.yul\":6529:6560   */\n      0x5468652072656e74616c20636f6e747261637420697320616374697665000000\n        /* \"#utility.yul\":6525:6526   */\n      0x00\n        /* \"#utility.yul\":6517:6523   */\n      dup3\n        /* \"#utility.yul\":6513:6527   */\n      add\n        /* \"#utility.yul\":6506:6561   */\n      mstore\n        /* \"#utility.yul\":6389:6568   */\n      pop\n      jump\t// out\n        /* \"#utility.yul\":6574:6940   */\n    tag_151:\n        /* \"#utility.yul\":6716:6719   */\n      0x00\n        /* \"#utility.yul\":6737:6804   */\n      tag_213\n        /* \"#utility.yul\":6801:6803   */\n      0x1d\n        /* \"#utility.yul\":6796:6799   */\n      dup4\n        /* \"#utility.yul\":6737:6804   */\n      tag_132\n      jump\t// in\n    tag_213:\n        /* \"#utility.yul\":6730:6804   */\n      swap2\n      pop\n        /* \"#utility.yul\":6813:6906   */\n      tag_214\n        /* \"#utility.yul\":6902:6905   */\n      dup3\n        /* \"#utility.yul\":6813:6906   */\n      tag_150\n      jump\t// in\n    tag_214:\n        /* \"#utility.yul\":6931:6933   */\n      0x20\n        /* \"#utility.yul\":6926:6929   */\n      dup3\n        /* \"#utility.yul\":6922:6934   */\n      add\n        /* \"#utility.yul\":6915:6934   */\n      swap1\n      pop\n        /* \"#utility.yul\":6574:6940   */\n      swap2\n      swap1\n      pop\n      jump\t// out\n        /* \"#utility.yul\":6946:7365   */\n    tag_114:\n        /* \"#utility.yul\":7112:7116   */\n      0x00\n        /* \"#utility.yul\":7150:7152   */\n      0x20\n        /* \"#utility.yul\":7139:7148   */\n      dup3\n        /* \"#utility.yul\":7135:7153   */\n      add\n        /* \"#utility.yul\":7127:7153   */\n      swap1\n      pop\n        /* \"#utility.yul\":7199:7208   */\n      dup2\n        /* \"#utility.yul\":7193:7197   */\n      dup2\n        /* \"#utility.yul\":7189:7209   */\n      sub\n        /* \"#utility.yul\":7185:7186   */\n      0x00\n        /* \"#utility.yul\":7174:7183   */\n      dup4\n        /* \"#utility.yul\":7170:7187   */\n      add\n        /* \"#utility.yul\":7163:7210   */\n      mstore\n        /* \"#utility.yul\":7227:7358   */\n      tag_216\n        /* \"#utility.yul\":7353:7357   */\n      dup2\n        /* \"#utility.yul\":7227:7358   */\n      tag_151\n      jump\t// in\n    tag_216:\n        /* \"#utility.yul\":7219:7358   */\n      swap1\n      pop\n        /* \"#utility.yul\":6946:7365   */\n      swap2\n      swap1\n      pop\n      jump\t// out\n        /* \"#utility.yul\":7371:7606   */\n    tag_152:\n        /* \"#utility.yul\":7511:7545   */\n      0x496e636f7272656374207061796d656e7420616d6f756e742e204d7573742062\n        /* \"#utility.yul\":7507:7508   */\n      0x00\n        /* \"#utility.yul\":7499:7505   */\n      dup3\n        /* \"#utility.yul\":7495:7509   */\n      add\n        /* \"#utility.yul\":7488:7546   */\n      mstore\n        /* \"#utility.yul\":7580:7598   */\n      0x652072656e74202b206465706f73697400000000000000000000000000000000\n        /* \"#utility.yul\":7575:7577   */\n      0x20\n        /* \"#utility.yul\":7567:7573   */\n      dup3\n        /* \"#utility.yul\":7563:7578   */\n      add\n        /* \"#utility.yul\":7556:7599   */\n      mstore\n        /* \"#utility.yul\":7371:7606   */\n      pop\n      jump\t// out\n        /* \"#utility.yul\":7612:7978   */\n    tag_153:\n        /* \"#utility.yul\":7754:7757   */\n      0x00\n        /* \"#utility.yul\":7775:7842   */\n      tag_219\n        /* \"#utility.yul\":7839:7841   */\n      0x30\n        /* \"#utility.yul\":7834:7837   */\n      dup4\n        /* \"#utility.yul\":7775:7842   */\n      tag_132\n      jump\t// in\n    tag_219:\n        /* \"#utility.yul\":7768:7842   */\n      swap2\n      pop\n        /* \"#utility.yul\":7851:7944   */\n      tag_220\n        /* \"#utility.yul\":7940:7943   */\n      dup3\n        /* \"#utility.yul\":7851:7944   */\n      tag_152\n      jump\t// in\n    tag_220:\n        /* \"#utility.yul\":7969:7971   */\n      0x40\n        /* \"#utility.yul\":7964:7967   */\n      dup3\n        /* \"#utility.yul\":7960:7972   */\n      add\n        /* \"#utility.yul\":7953:7972   */\n      swap1\n      pop\n        /* \"#utility.yul\":7612:7978   */\n      swap2\n      swap1\n      pop\n      jump\t// out\n        /* \"#utility.yul\":7984:8403   */\n    tag_118:\n        /* \"#utility.yul\":8150:8154   */\n      0x00\n        /* \"#utility.yul\":8188:8190   */\n      0x20\n        /* \"#utility.yul\":8177:8186   */\n      dup3\n        /* \"#utility.yul\":8173:8191   */\n      add\n        /* \"#utility.yul\":8165:8191   */\n      swap1\n      pop\n        /* \"#utility.yul\":8237:8246   */\n      dup2\n        /* \"#utility.yul\":8231:8235   */\n      dup2\n        /* \"#utility.yul\":8227:8247   */\n      sub\n        /* \"#utility.yul\":8223:8224   */\n      0x00\n        /* \"#utility.yul\":8212:8221   */\n      dup4\n        /* \"#utility.yul\":8208:8225   */\n      add\n        /* \"#utility.yul\":8201:8248   */\n      mstore\n        /* \"#utility.yul\":8265:8396   */\n      tag_222\n        /* \"#utility.yul\":8391:8395   */\n      dup2\n        /* \"#utility.yul\":8265:8396   */\n      tag_153\n      jump\t// in\n    tag_222:\n        /* \"#utility.yul\":8257:8396   */\n      swap1\n      pop\n        /* \"#utility.yul\":7984:8403   */\n      swap2\n      swap1\n      pop\n      jump\t// out\n        /* \"#utility.yul\":8409:8577   */\n    tag_154:\n        /* \"#utility.yul\":8549:8569   */\n      0x52656e74616c2069732066696e69736865640000000000000000000000000000\n        /* \"#utility.yul\":8545:8546   */\n      0x00\n        /* \"#utility.yul\":8537:8543   */\n      dup3\n        /* \"#utility.yul\":8533:8547   */\n      add\n        /* \"#utility.yul\":8526:8570   */\n      mstore\n        /* \"#utility.yul\":8409:8577   */\n      pop\n      jump\t// out\n        /* \"#utility.yul\":8583:8949   */\n    tag_155:\n        /* \"#utility.yul\":8725:8728   */\n      0x00\n        /* \"#utility.yul\":8746:8813   */\n      tag_225\n        /* \"#utility.yul\":8810:8812   */\n      0x12\n        /* \"#utility.yul\":8805:8808   */\n      dup4\n        /* \"#utility.yul\":8746:8813   */\n      tag_132\n      jump\t// in\n    tag_225:\n        /* \"#utility.yul\":8739:8813   */\n      swap2\n      pop\n        /* \"#utility.yul\":8822:8915   */\n      tag_226\n        /* \"#utility.yul\":8911:8914   */\n      dup3\n        /* \"#utility.yul\":8822:8915   */\n      tag_154\n      jump\t// in\n    tag_226:\n        /* \"#utility.yul\":8940:8942   */\n      0x20\n        /* \"#utility.yul\":8935:8938   */\n      dup3\n        /* \"#utility.yul\":8931:8943   */\n      add\n        /* \"#utility.yul\":8924:8943   */\n      swap1\n      pop\n        /* \"#utility.yul\":8583:8949   */\n      swap2\n      swap1\n      pop\n      jump\t// out\n        /* \"#utility.yul\":8955:9374   */\n    tag_122:\n        /* \"#utility.yul\":9121:9125   */\n      0x00\n        /* \"#utility.yul\":9159:9161   */\n      0x20\n        /* \"#utility.yul\":9148:9157   */\n      dup3\n        /* \"#utility.yul\":9144:9162   */\n      add\n        /* \"#utility.yul\":9136:9162   */\n      swap1\n      pop\n        /* \"#utility.yul\":9208:9217   */\n      dup2\n        /* \"#utility.yul\":9202:9206   */\n      dup2\n        /* \"#utility.yul\":9198:9218   */\n      sub\n        /* \"#utility.yul\":9194:9195   */\n      0x00\n        /* \"#utility.yul\":9183:9192   */\n      dup4\n        /* \"#utility.yul\":9179:9196   */\n      add\n        /* \"#utility.yul\":9172:9219   */\n      mstore\n        /* \"#utility.yul\":9236:9367   */\n      tag_228\n        /* \"#utility.yul\":9362:9366   */\n      dup2\n        /* \"#utility.yul\":9236:9367   */\n      tag_155\n      jump\t// in\n    tag_228:\n        /* \"#utility.yul\":9228:9367   */\n      swap1\n      pop\n        /* \"#utility.yul\":8955:9374   */\n      swap2\n      swap1\n      pop\n      jump\t// out\n\n    auxdata: 0xa2646970667358221220b138a614507827d9e012479f26c30362ba8a45cf5d6638f6e4f1debdafb0093164736f6c63430008180033\n}\n",
				"bytecode": {
					"linkReferences": {},
					"object": "6080604052601460075534801562000015575f80fd5b506040516200163d3803806200163d83398181016040528101906200003b919062000380565b335f806101000a81548173ffffffffffffffffffffffffffffffffffffffff021916908373ffffffffffffffffffffffffffffffffffffffff1602179055508360015f6101000a81548173ffffffffffffffffffffffffffffffffffffffff021916908373ffffffffffffffffffffffffffffffffffffffff160217905550600183620000c991906200043b565b600281905550816003819055508060069081620000e79190620006b3565b505f60055f6101000a81548160ff0219169083151502179055505f600a5f6101000a81548160ff02191690831515021790555060646007546002546200012e91906200043b565b6200013a9190620007c4565b600881905550600854600254620001529190620007fb565b6009819055505050505062000835565b5f604051905090565b5f80fd5b5f80fd5b5f73ffffffffffffffffffffffffffffffffffffffff82169050919050565b5f6200019e8262000173565b9050919050565b620001b08162000192565b8114620001bb575f80fd5b50565b5f81519050620001ce81620001a5565b92915050565b5f819050919050565b620001e881620001d4565b8114620001f3575f80fd5b50565b5f815190506200020681620001dd565b92915050565b5f80fd5b5f80fd5b5f601f19601f8301169050919050565b7f4e487b71000000000000000000000000000000000000000000000000000000005f52604160045260245ffd5b6200025c8262000214565b810181811067ffffffffffffffff821117156200027e576200027d62000224565b5b80604052505050565b5f6200029262000162565b9050620002a0828262000251565b919050565b5f67ffffffffffffffff821115620002c257620002c162000224565b5b620002cd8262000214565b9050602081019050919050565b5f5b83811015620002f9578082015181840152602081019050620002dc565b5f8484015250505050565b5f6200031a6200031484620002a5565b62000287565b90508281526020810184848401111562000339576200033862000210565b5b62000346848285620002da565b509392505050565b5f82601f8301126200036557620003646200020c565b5b81516200037784826020860162000304565b91505092915050565b5f805f80608085870312156200039b576200039a6200016b565b5b5f620003aa87828801620001be565b9450506020620003bd87828801620001f6565b9350506040620003d087828801620001f6565b925050606085015167ffffffffffffffff811115620003f457620003f36200016f565b5b62000402878288016200034e565b91505092959194509250565b7f4e487b71000000000000000000000000000000000000000000000000000000005f52601160045260245ffd5b5f6200044782620001d4565b91506200045483620001d4565b92508282026200046481620001d4565b915082820484148315176200047e576200047d6200040e565b5b5092915050565b5f81519050919050565b7f4e487b71000000000000000000000000000000000000000000000000000000005f52602260045260245ffd5b5f6002820490506001821680620004d457607f821691505b602082108103620004ea57620004e96200048f565b5b50919050565b5f819050815f5260205f209050919050565b5f6020601f8301049050919050565b5f82821b905092915050565b5f600883026200054e7fffffffffffffffffffffffffffffffffffffffffffffffffffffffffffffffff8262000511565b6200055a868362000511565b95508019841693508086168417925050509392505050565b5f819050919050565b5f6200059b620005956200058f84620001d4565b62000572565b620001d4565b9050919050565b5f819050919050565b620005b6836200057b565b620005ce620005c582620005a2565b8484546200051d565b825550505050565b5f90565b620005e4620005d6565b620005f1818484620005ab565b505050565b5b8181101562000618576200060c5f82620005da565b600181019050620005f7565b5050565b601f82111562000667576200063181620004f0565b6200063c8462000502565b810160208510156200064c578190505b620006646200065b8562000502565b830182620005f6565b50505b505050565b5f82821c905092915050565b5f620006895f19846008026200066c565b1980831691505092915050565b5f620006a3838362000678565b9150826002028217905092915050565b620006be8262000485565b67ffffffffffffffff811115620006da57620006d962000224565b5b620006e68254620004bc565b620006f38282856200061c565b5f60209050601f83116001811462000729575f841562000714578287015190505b62000720858262000696565b8655506200078f565b601f1984166200073986620004f0565b5f5b8281101562000762578489015182556001820191506020850194506020810190506200073b565b868310156200078257848901516200077e601f89168262000678565b8355505b6001600288020188555050505b505050505050565b7f4e487b71000000000000000000000000000000000000000000000000000000005f52601260045260245ffd5b5f620007d082620001d4565b9150620007dd83620001d4565b925082620007f057620007ef62000797565b5b828204905092915050565b5f6200080782620001d4565b91506200081483620001d4565b92508282019050808211156200082f576200082e6200040e565b5b92915050565b610dfa80620008435f395ff3fe6080604052600436106100f2575f3560e01c80637d96f69311610089578063adf0779111610058578063adf07791146102ba578063c9230c5d146102e4578063df7140061461030e578063f8ef1e1314610338576100f2565b80637d96f693146102325780638c4b84751461025c5780638da5cb5b14610286578063a709c4fe146102b0576100f2565b806331d019b7116100c557806331d019b71461019e578063419759f5146101c85780636d76a585146101f257806378e9792514610208576100f2565b8063092d4eb5146100f65780630c3562ba146101205780631a39d8ef1461014a57806322f3e2d414610174575b5f80fd5b348015610101575f80fd5b5061010a610362565b6040516101179190610983565b60405180910390f35b34801561012b575f80fd5b506101346103f2565b60405161014191906109bb565b60405180910390f35b348015610155575f80fd5b5061015e6103f8565b60405161016b91906109bb565b60405180910390f35b34801561017f575f80fd5b506101886103fe565b60405161019591906109ee565b60405180910390f35b3480156101a9575f80fd5b506101b2610410565b6040516101bf91906109ee565b60405180910390f35b3480156101d3575f80fd5b506101dc610425565b6040516101e991906109bb565b60405180910390f35b3480156101fd575f80fd5b5061020661042b565b005b348015610213575f80fd5b5061021c610613565b60405161022991906109bb565b60405180910390f35b34801561023d575f80fd5b50610246610619565b60405161025391906109bb565b60405180910390f35b348015610267575f80fd5b50610270610622565b60405161027d91906109bb565b60405180910390f35b348015610291575f80fd5b5061029a610628565b6040516102a79190610a46565b60405180910390f35b6102b861064b565b005b3480156102c5575f80fd5b506102ce61082d565b6040516102db9190610a46565b60405180910390f35b3480156102ef575f80fd5b506102f8610852565b6040516103059190610983565b60405180910390f35b348015610319575f80fd5b506103226108de565b60405161032f91906109ee565b60405180910390f35b348015610343575f80fd5b5061034c6108f3565b60405161035991906109bb565b60405180910390f35b60606006805461037190610a8c565b80601f016020809104026020016040519081016040528092919081815260200182805461039d90610a8c565b80156103e85780601f106103bf576101008083540402835291602001916103e8565b820191905f5260205f20905b8154815290600101906020018083116103cb57829003601f168201915b5050505050905090565b60075481565b60095481565b60055f9054906101000a900460ff1681565b5f60055f9054906101000a900460ff16905090565b60085481565b5f8054906101000a900473ffffffffffffffffffffffffffffffffffffffff1673ffffffffffffffffffffffffffffffffffffffff163373ffffffffffffffffffffffffffffffffffffffff16146104b8576040517f08c379a00000000000000000000000000000000000000000000000000000000081526004016104af90610b2c565b60405180910390fd5b60055f9054906101000a900460ff16610506576040517f08c379a00000000000000000000000000000000000000000000000000000000081526004016104fd90610bba565b60405180910390fd5b5f60055f6101000a81548160ff0219169083151502179055506001600a5f6101000a81548160ff02191690831515021790555060015f9054906101000a900473ffffffffffffffffffffffffffffffffffffffff1673ffffffffffffffffffffffffffffffffffffffff166108fc60085490811502906040515f60405180830381858888f1935050505015801561059f573d5f803e3d5ffd5b5060015f9054906101000a900473ffffffffffffffffffffffffffffffffffffffff1673ffffffffffffffffffffffffffffffffffffffff167feedd444c80a4085394147f0c073e0eaa38424e2202f53fd968d52b23477945d160085460405161060991906109bb565b60405180910390a2565b60045481565b5f600854905090565b60035481565b5f8054906101000a900473ffffffffffffffffffffffffffffffffffffffff1681565b60015f9054906101000a900473ffffffffffffffffffffffffffffffffffffffff1673ffffffffffffffffffffffffffffffffffffffff163373ffffffffffffffffffffffffffffffffffffffff16146106da576040517f08c379a00000000000000000000000000000000000000000000000000000000081526004016106d190610c48565b60405180910390fd5b60055f9054906101000a900460ff1615610729576040517f08c379a000000000000000000000000000000000000000000000000000000000815260040161072090610cb0565b60405180910390fd5b600954341461076d576040517f08c379a000000000000000000000000000000000000000000000000000000000815260040161076490610d3e565b60405180910390fd5b600a5f9054906101000a900460ff16156107bc576040517f08c379a00000000000000000000000000000000000000000000000000000000081526004016107b390610da6565b60405180910390fd5b600160055f6101000a81548160ff021916908315150217905550426004819055503373ffffffffffffffffffffffffffffffffffffffff167f03b5033869479e8a98af42b272f05933f60489fe9fb43d63e11a6c31f3fa74743460405161082391906109bb565b60405180910390a2565b60015f9054906101000a900473ffffffffffffffffffffffffffffffffffffffff1681565b6006805461085f90610a8c565b80601f016020809104026020016040519081016040528092919081815260200182805461088b90610a8c565b80156108d65780601f106108ad576101008083540402835291602001916108d6565b820191905f5260205f20905b8154815290600101906020018083116108b957829003601f168201915b505050505081565b5f600a5f9054906101000a900460ff16905090565b60025481565b5f81519050919050565b5f82825260208201905092915050565b5f5b83811015610930578082015181840152602081019050610915565b5f8484015250505050565b5f601f19601f8301169050919050565b5f610955826108f9565b61095f8185610903565b935061096f818560208601610913565b6109788161093b565b840191505092915050565b5f6020820190508181035f83015261099b818461094b565b905092915050565b5f819050919050565b6109b5816109a3565b82525050565b5f6020820190506109ce5f8301846109ac565b92915050565b5f8115159050919050565b6109e8816109d4565b82525050565b5f602082019050610a015f8301846109df565b92915050565b5f73ffffffffffffffffffffffffffffffffffffffff82169050919050565b5f610a3082610a07565b9050919050565b610a4081610a26565b82525050565b5f602082019050610a595f830184610a37565b92915050565b7f4e487b71000000000000000000000000000000000000000000000000000000005f52602260045260245ffd5b5f6002820490506001821680610aa357607f821691505b602082108103610ab657610ab5610a5f565b5b50919050565b7f4f6e6c7920746865206f776e65722063616e20706572666f726d2074686973205f8201527f616374696f6e0000000000000000000000000000000000000000000000000000602082015250565b5f610b16602683610903565b9150610b2182610abc565b604082019050919050565b5f6020820190508181035f830152610b4381610b0a565b9050919050565b7f5468652072656e74616c20636f6e7472616374206973206e6f742061637469765f8201527f6500000000000000000000000000000000000000000000000000000000000000602082015250565b5f610ba4602183610903565b9150610baf82610b4a565b604082019050919050565b5f6020820190508181035f830152610bd181610b98565b9050919050565b7f4f6e6c79207468652074656e616e742063616e20706572666f726d20746869735f8201527f20616374696f6e00000000000000000000000000000000000000000000000000602082015250565b5f610c32602783610903565b9150610c3d82610bd8565b604082019050919050565b5f6020820190508181035f830152610c5f81610c26565b9050919050565b7f5468652072656e74616c20636f6e7472616374206973206163746976650000005f82015250565b5f610c9a601d83610903565b9150610ca582610c66565b602082019050919050565b5f6020820190508181035f830152610cc781610c8e565b9050919050565b7f496e636f7272656374207061796d656e7420616d6f756e742e204d75737420625f8201527f652072656e74202b206465706f73697400000000000000000000000000000000602082015250565b5f610d28603083610903565b9150610d3382610cce565b604082019050919050565b5f6020820190508181035f830152610d5581610d1c565b9050919050565b7f52656e74616c2069732066696e697368656400000000000000000000000000005f82015250565b5f610d90601283610903565b9150610d9b82610d5c565b602082019050919050565b5f6020820190508181035f830152610dbd81610d84565b905091905056fea2646970667358221220b138a614507827d9e012479f26c30362ba8a45cf5d6638f6e4f1debdafb0093164736f6c63430008180033",
					"opcodes": "PUSH1 0x80 PUSH1 0x40 MSTORE PUSH1 0x14 PUSH1 0x7 SSTORE CALLVALUE DUP1 ISZERO PUSH3 0x15 JUMPI PUSH0 DUP1 REVERT JUMPDEST POP PUSH1 0x40 MLOAD PUSH3 0x163D CODESIZE SUB DUP1 PUSH3 0x163D DUP4 CODECOPY DUP2 DUP2 ADD PUSH1 0x40 MSTORE DUP2 ADD SWAP1 PUSH3 0x3B SWAP2 SWAP1 PUSH3 0x380 JUMP JUMPDEST CALLER PUSH0 DUP1 PUSH2 0x100 EXP DUP2 SLOAD DUP2 PUSH20 0xFFFFFFFFFFFFFFFFFFFFFFFFFFFFFFFFFFFFFFFF MUL NOT AND SWAP1 DUP4 PUSH20 0xFFFFFFFFFFFFFFFFFFFFFFFFFFFFFFFFFFFFFFFF AND MUL OR SWAP1 SSTORE POP DUP4 PUSH1 0x1 PUSH0 PUSH2 0x100 EXP DUP2 SLOAD DUP2 PUSH20 0xFFFFFFFFFFFFFFFFFFFFFFFFFFFFFFFFFFFFFFFF MUL NOT AND SWAP1 DUP4 PUSH20 0xFFFFFFFFFFFFFFFFFFFFFFFFFFFFFFFFFFFFFFFF AND MUL OR SWAP1 SSTORE POP PUSH1 0x1 DUP4 PUSH3 0xC9 SWAP2 SWAP1 PUSH3 0x43B JUMP JUMPDEST PUSH1 0x2 DUP2 SWAP1 SSTORE POP DUP2 PUSH1 0x3 DUP2 SWAP1 SSTORE POP DUP1 PUSH1 0x6 SWAP1 DUP2 PUSH3 0xE7 SWAP2 SWAP1 PUSH3 0x6B3 JUMP JUMPDEST POP PUSH0 PUSH1 0x5 PUSH0 PUSH2 0x100 EXP DUP2 SLOAD DUP2 PUSH1 0xFF MUL NOT AND SWAP1 DUP4 ISZERO ISZERO MUL OR SWAP1 SSTORE POP PUSH0 PUSH1 0xA PUSH0 PUSH2 0x100 EXP DUP2 SLOAD DUP2 PUSH1 0xFF MUL NOT AND SWAP1 DUP4 ISZERO ISZERO MUL OR SWAP1 SSTORE POP PUSH1 0x64 PUSH1 0x7 SLOAD PUSH1 0x2 SLOAD PUSH3 0x12E SWAP2 SWAP1 PUSH3 0x43B JUMP JUMPDEST PUSH3 0x13A SWAP2 SWAP1 PUSH3 0x7C4 JUMP JUMPDEST PUSH1 0x8 DUP2 SWAP1 SSTORE POP PUSH1 0x8 SLOAD PUSH1 0x2 SLOAD PUSH3 0x152 SWAP2 SWAP1 PUSH3 0x7FB JUMP JUMPDEST PUSH1 0x9 DUP2 SWAP1 SSTORE POP POP POP POP POP PUSH3 0x835 JUMP JUMPDEST PUSH0 PUSH1 0x40 MLOAD SWAP1 POP SWAP1 JUMP JUMPDEST PUSH0 DUP1 REVERT JUMPDEST PUSH0 DUP1 REVERT JUMPDEST PUSH0 PUSH20 0xFFFFFFFFFFFFFFFFFFFFFFFFFFFFFFFFFFFFFFFF DUP3 AND SWAP1 POP SWAP2 SWAP1 POP JUMP JUMPDEST PUSH0 PUSH3 0x19E DUP3 PUSH3 0x173 JUMP JUMPDEST SWAP1 POP SWAP2 SWAP1 POP JUMP JUMPDEST PUSH3 0x1B0 DUP2 PUSH3 0x192 JUMP JUMPDEST DUP2 EQ PUSH3 0x1BB JUMPI PUSH0 DUP1 REVERT JUMPDEST POP JUMP JUMPDEST PUSH0 DUP2 MLOAD SWAP1 POP PUSH3 0x1CE DUP2 PUSH3 0x1A5 JUMP JUMPDEST SWAP3 SWAP2 POP POP JUMP JUMPDEST PUSH0 DUP2 SWAP1 POP SWAP2 SWAP1 POP JUMP JUMPDEST PUSH3 0x1E8 DUP2 PUSH3 0x1D4 JUMP JUMPDEST DUP2 EQ PUSH3 0x1F3 JUMPI PUSH0 DUP1 REVERT JUMPDEST POP JUMP JUMPDEST PUSH0 DUP2 MLOAD SWAP1 POP PUSH3 0x206 DUP2 PUSH3 0x1DD JUMP JUMPDEST SWAP3 SWAP2 POP POP JUMP JUMPDEST PUSH0 DUP1 REVERT JUMPDEST PUSH0 DUP1 REVERT JUMPDEST PUSH0 PUSH1 0x1F NOT PUSH1 0x1F DUP4 ADD AND SWAP1 POP SWAP2 SWAP1 POP JUMP JUMPDEST PUSH32 0x4E487B7100000000000000000000000000000000000000000000000000000000 PUSH0 MSTORE PUSH1 0x41 PUSH1 0x4 MSTORE PUSH1 0x24 PUSH0 REVERT JUMPDEST PUSH3 0x25C DUP3 PUSH3 0x214 JUMP JUMPDEST DUP2 ADD DUP2 DUP2 LT PUSH8 0xFFFFFFFFFFFFFFFF DUP3 GT OR ISZERO PUSH3 0x27E JUMPI PUSH3 0x27D PUSH3 0x224 JUMP JUMPDEST JUMPDEST DUP1 PUSH1 0x40 MSTORE POP POP POP JUMP JUMPDEST PUSH0 PUSH3 0x292 PUSH3 0x162 JUMP JUMPDEST SWAP1 POP PUSH3 0x2A0 DUP3 DUP3 PUSH3 0x251 JUMP JUMPDEST SWAP2 SWAP1 POP JUMP JUMPDEST PUSH0 PUSH8 0xFFFFFFFFFFFFFFFF DUP3 GT ISZERO PUSH3 0x2C2 JUMPI PUSH3 0x2C1 PUSH3 0x224 JUMP JUMPDEST JUMPDEST PUSH3 0x2CD DUP3 PUSH3 0x214 JUMP JUMPDEST SWAP1 POP PUSH1 0x20 DUP2 ADD SWAP1 POP SWAP2 SWAP1 POP JUMP JUMPDEST PUSH0 JUMPDEST DUP4 DUP2 LT ISZERO PUSH3 0x2F9 JUMPI DUP1 DUP3 ADD MLOAD DUP2 DUP5 ADD MSTORE PUSH1 0x20 DUP2 ADD SWAP1 POP PUSH3 0x2DC JUMP JUMPDEST PUSH0 DUP5 DUP5 ADD MSTORE POP POP POP POP JUMP JUMPDEST PUSH0 PUSH3 0x31A PUSH3 0x314 DUP5 PUSH3 0x2A5 JUMP JUMPDEST PUSH3 0x287 JUMP JUMPDEST SWAP1 POP DUP3 DUP2 MSTORE PUSH1 0x20 DUP2 ADD DUP5 DUP5 DUP5 ADD GT ISZERO PUSH3 0x339 JUMPI PUSH3 0x338 PUSH3 0x210 JUMP JUMPDEST JUMPDEST PUSH3 0x346 DUP5 DUP3 DUP6 PUSH3 0x2DA JUMP JUMPDEST POP SWAP4 SWAP3 POP POP POP JUMP JUMPDEST PUSH0 DUP3 PUSH1 0x1F DUP4 ADD SLT PUSH3 0x365 JUMPI PUSH3 0x364 PUSH3 0x20C JUMP JUMPDEST JUMPDEST DUP2 MLOAD PUSH3 0x377 DUP5 DUP3 PUSH1 0x20 DUP7 ADD PUSH3 0x304 JUMP JUMPDEST SWAP2 POP POP SWAP3 SWAP2 POP POP JUMP JUMPDEST PUSH0 DUP1 PUSH0 DUP1 PUSH1 0x80 DUP6 DUP8 SUB SLT ISZERO PUSH3 0x39B JUMPI PUSH3 0x39A PUSH3 0x16B JUMP JUMPDEST JUMPDEST PUSH0 PUSH3 0x3AA DUP8 DUP3 DUP9 ADD PUSH3 0x1BE JUMP JUMPDEST SWAP5 POP POP PUSH1 0x20 PUSH3 0x3BD DUP8 DUP3 DUP9 ADD PUSH3 0x1F6 JUMP JUMPDEST SWAP4 POP POP PUSH1 0x40 PUSH3 0x3D0 DUP8 DUP3 DUP9 ADD PUSH3 0x1F6 JUMP JUMPDEST SWAP3 POP POP PUSH1 0x60 DUP6 ADD MLOAD PUSH8 0xFFFFFFFFFFFFFFFF DUP2 GT ISZERO PUSH3 0x3F4 JUMPI PUSH3 0x3F3 PUSH3 0x16F JUMP JUMPDEST JUMPDEST PUSH3 0x402 DUP8 DUP3 DUP9 ADD PUSH3 0x34E JUMP JUMPDEST SWAP2 POP POP SWAP3 SWAP6 SWAP2 SWAP5 POP SWAP3 POP JUMP JUMPDEST PUSH32 0x4E487B7100000000000000000000000000000000000000000000000000000000 PUSH0 MSTORE PUSH1 0x11 PUSH1 0x4 MSTORE PUSH1 0x24 PUSH0 REVERT JUMPDEST PUSH0 PUSH3 0x447 DUP3 PUSH3 0x1D4 JUMP JUMPDEST SWAP2 POP PUSH3 0x454 DUP4 PUSH3 0x1D4 JUMP JUMPDEST SWAP3 POP DUP3 DUP3 MUL PUSH3 0x464 DUP2 PUSH3 0x1D4 JUMP JUMPDEST SWAP2 POP DUP3 DUP3 DIV DUP5 EQ DUP4 ISZERO OR PUSH3 0x47E JUMPI PUSH3 0x47D PUSH3 0x40E JUMP JUMPDEST JUMPDEST POP SWAP3 SWAP2 POP POP JUMP JUMPDEST PUSH0 DUP2 MLOAD SWAP1 POP SWAP2 SWAP1 POP JUMP JUMPDEST PUSH32 0x4E487B7100000000000000000000000000000000000000000000000000000000 PUSH0 MSTORE PUSH1 0x22 PUSH1 0x4 MSTORE PUSH1 0x24 PUSH0 REVERT JUMPDEST PUSH0 PUSH1 0x2 DUP3 DIV SWAP1 POP PUSH1 0x1 DUP3 AND DUP1 PUSH3 0x4D4 JUMPI PUSH1 0x7F DUP3 AND SWAP2 POP JUMPDEST PUSH1 0x20 DUP3 LT DUP2 SUB PUSH3 0x4EA JUMPI PUSH3 0x4E9 PUSH3 0x48F JUMP JUMPDEST JUMPDEST POP SWAP2 SWAP1 POP JUMP JUMPDEST PUSH0 DUP2 SWAP1 POP DUP2 PUSH0 MSTORE PUSH1 0x20 PUSH0 KECCAK256 SWAP1 POP SWAP2 SWAP1 POP JUMP JUMPDEST PUSH0 PUSH1 0x20 PUSH1 0x1F DUP4 ADD DIV SWAP1 POP SWAP2 SWAP1 POP JUMP JUMPDEST PUSH0 DUP3 DUP3 SHL SWAP1 POP SWAP3 SWAP2 POP POP JUMP JUMPDEST PUSH0 PUSH1 0x8 DUP4 MUL PUSH3 0x54E PUSH32 0xFFFFFFFFFFFFFFFFFFFFFFFFFFFFFFFFFFFFFFFFFFFFFFFFFFFFFFFFFFFFFFFF DUP3 PUSH3 0x511 JUMP JUMPDEST PUSH3 0x55A DUP7 DUP4 PUSH3 0x511 JUMP JUMPDEST SWAP6 POP DUP1 NOT DUP5 AND SWAP4 POP DUP1 DUP7 AND DUP5 OR SWAP3 POP POP POP SWAP4 SWAP3 POP POP POP JUMP JUMPDEST PUSH0 DUP2 SWAP1 POP SWAP2 SWAP1 POP JUMP JUMPDEST PUSH0 PUSH3 0x59B PUSH3 0x595 PUSH3 0x58F DUP5 PUSH3 0x1D4 JUMP JUMPDEST PUSH3 0x572 JUMP JUMPDEST PUSH3 0x1D4 JUMP JUMPDEST SWAP1 POP SWAP2 SWAP1 POP JUMP JUMPDEST PUSH0 DUP2 SWAP1 POP SWAP2 SWAP1 POP JUMP JUMPDEST PUSH3 0x5B6 DUP4 PUSH3 0x57B JUMP JUMPDEST PUSH3 0x5CE PUSH3 0x5C5 DUP3 PUSH3 0x5A2 JUMP JUMPDEST DUP5 DUP5 SLOAD PUSH3 0x51D JUMP JUMPDEST DUP3 SSTORE POP POP POP POP JUMP JUMPDEST PUSH0 SWAP1 JUMP JUMPDEST PUSH3 0x5E4 PUSH3 0x5D6 JUMP JUMPDEST PUSH3 0x5F1 DUP2 DUP5 DUP5 PUSH3 0x5AB JUMP JUMPDEST POP POP POP JUMP JUMPDEST JUMPDEST DUP2 DUP2 LT ISZERO PUSH3 0x618 JUMPI PUSH3 0x60C PUSH0 DUP3 PUSH3 0x5DA JUMP JUMPDEST PUSH1 0x1 DUP2 ADD SWAP1 POP PUSH3 0x5F7 JUMP JUMPDEST POP POP JUMP JUMPDEST PUSH1 0x1F DUP3 GT ISZERO PUSH3 0x667 JUMPI PUSH3 0x631 DUP2 PUSH3 0x4F0 JUMP JUMPDEST PUSH3 0x63C DUP5 PUSH3 0x502 JUMP JUMPDEST DUP2 ADD PUSH1 0x20 DUP6 LT ISZERO PUSH3 0x64C JUMPI DUP2 SWAP1 POP JUMPDEST PUSH3 0x664 PUSH3 0x65B DUP6 PUSH3 0x502 JUMP JUMPDEST DUP4 ADD DUP3 PUSH3 0x5F6 JUMP JUMPDEST POP POP JUMPDEST POP POP POP JUMP JUMPDEST PUSH0 DUP3 DUP3 SHR SWAP1 POP SWAP3 SWAP2 POP POP JUMP JUMPDEST PUSH0 PUSH3 0x689 PUSH0 NOT DUP5 PUSH1 0x8 MUL PUSH3 0x66C JUMP JUMPDEST NOT DUP1 DUP4 AND SWAP2 POP POP SWAP3 SWAP2 POP POP JUMP JUMPDEST PUSH0 PUSH3 0x6A3 DUP4 DUP4 PUSH3 0x678 JUMP JUMPDEST SWAP2 POP DUP3 PUSH1 0x2 MUL DUP3 OR SWAP1 POP SWAP3 SWAP2 POP POP JUMP JUMPDEST PUSH3 0x6BE DUP3 PUSH3 0x485 JUMP JUMPDEST PUSH8 0xFFFFFFFFFFFFFFFF DUP2 GT ISZERO PUSH3 0x6DA JUMPI PUSH3 0x6D9 PUSH3 0x224 JUMP JUMPDEST JUMPDEST PUSH3 0x6E6 DUP3 SLOAD PUSH3 0x4BC JUMP JUMPDEST PUSH3 0x6F3 DUP3 DUP3 DUP6 PUSH3 0x61C JUMP JUMPDEST PUSH0 PUSH1 0x20 SWAP1 POP PUSH1 0x1F DUP4 GT PUSH1 0x1 DUP2 EQ PUSH3 0x729 JUMPI PUSH0 DUP5 ISZERO PUSH3 0x714 JUMPI DUP3 DUP8 ADD MLOAD SWAP1 POP JUMPDEST PUSH3 0x720 DUP6 DUP3 PUSH3 0x696 JUMP JUMPDEST DUP7 SSTORE POP PUSH3 0x78F JUMP JUMPDEST PUSH1 0x1F NOT DUP5 AND PUSH3 0x739 DUP7 PUSH3 0x4F0 JUMP JUMPDEST PUSH0 JUMPDEST DUP3 DUP2 LT ISZERO PUSH3 0x762 JUMPI DUP5 DUP10 ADD MLOAD DUP3 SSTORE PUSH1 0x1 DUP3 ADD SWAP2 POP PUSH1 0x20 DUP6 ADD SWAP5 POP PUSH1 0x20 DUP2 ADD SWAP1 POP PUSH3 0x73B JUMP JUMPDEST DUP7 DUP4 LT ISZERO PUSH3 0x782 JUMPI DUP5 DUP10 ADD MLOAD PUSH3 0x77E PUSH1 0x1F DUP10 AND DUP3 PUSH3 0x678 JUMP JUMPDEST DUP4 SSTORE POP JUMPDEST PUSH1 0x1 PUSH1 0x2 DUP9 MUL ADD DUP9 SSTORE POP POP POP JUMPDEST POP POP POP POP POP POP JUMP JUMPDEST PUSH32 0x4E487B7100000000000000000000000000000000000000000000000000000000 PUSH0 MSTORE PUSH1 0x12 PUSH1 0x4 MSTORE PUSH1 0x24 PUSH0 REVERT JUMPDEST PUSH0 PUSH3 0x7D0 DUP3 PUSH3 0x1D4 JUMP JUMPDEST SWAP2 POP PUSH3 0x7DD DUP4 PUSH3 0x1D4 JUMP JUMPDEST SWAP3 POP DUP3 PUSH3 0x7F0 JUMPI PUSH3 0x7EF PUSH3 0x797 JUMP JUMPDEST JUMPDEST DUP3 DUP3 DIV SWAP1 POP SWAP3 SWAP2 POP POP JUMP JUMPDEST PUSH0 PUSH3 0x807 DUP3 PUSH3 0x1D4 JUMP JUMPDEST SWAP2 POP PUSH3 0x814 DUP4 PUSH3 0x1D4 JUMP JUMPDEST SWAP3 POP DUP3 DUP3 ADD SWAP1 POP DUP1 DUP3 GT ISZERO PUSH3 0x82F JUMPI PUSH3 0x82E PUSH3 0x40E JUMP JUMPDEST JUMPDEST SWAP3 SWAP2 POP POP JUMP JUMPDEST PUSH2 0xDFA DUP1 PUSH3 0x843 PUSH0 CODECOPY PUSH0 RETURN INVALID PUSH1 0x80 PUSH1 0x40 MSTORE PUSH1 0x4 CALLDATASIZE LT PUSH2 0xF2 JUMPI PUSH0 CALLDATALOAD PUSH1 0xE0 SHR DUP1 PUSH4 0x7D96F693 GT PUSH2 0x89 JUMPI DUP1 PUSH4 0xADF07791 GT PUSH2 0x58 JUMPI DUP1 PUSH4 0xADF07791 EQ PUSH2 0x2BA JUMPI DUP1 PUSH4 0xC9230C5D EQ PUSH2 0x2E4 JUMPI DUP1 PUSH4 0xDF714006 EQ PUSH2 0x30E JUMPI DUP1 PUSH4 0xF8EF1E13 EQ PUSH2 0x338 JUMPI PUSH2 0xF2 JUMP JUMPDEST DUP1 PUSH4 0x7D96F693 EQ PUSH2 0x232 JUMPI DUP1 PUSH4 0x8C4B8475 EQ PUSH2 0x25C JUMPI DUP1 PUSH4 0x8DA5CB5B EQ PUSH2 0x286 JUMPI DUP1 PUSH4 0xA709C4FE EQ PUSH2 0x2B0 JUMPI PUSH2 0xF2 JUMP JUMPDEST DUP1 PUSH4 0x31D019B7 GT PUSH2 0xC5 JUMPI DUP1 PUSH4 0x31D019B7 EQ PUSH2 0x19E JUMPI DUP1 PUSH4 0x419759F5 EQ PUSH2 0x1C8 JUMPI DUP1 PUSH4 0x6D76A585 EQ PUSH2 0x1F2 JUMPI DUP1 PUSH4 0x78E97925 EQ PUSH2 0x208 JUMPI PUSH2 0xF2 JUMP JUMPDEST DUP1 PUSH4 0x92D4EB5 EQ PUSH2 0xF6 JUMPI DUP1 PUSH4 0xC3562BA EQ PUSH2 0x120 JUMPI DUP1 PUSH4 0x1A39D8EF EQ PUSH2 0x14A JUMPI DUP1 PUSH4 0x22F3E2D4 EQ PUSH2 0x174 JUMPI JUMPDEST PUSH0 DUP1 REVERT JUMPDEST CALLVALUE DUP1 ISZERO PUSH2 0x101 JUMPI PUSH0 DUP1 REVERT JUMPDEST POP PUSH2 0x10A PUSH2 0x362 JUMP JUMPDEST PUSH1 0x40 MLOAD PUSH2 0x117 SWAP2 SWAP1 PUSH2 0x983 JUMP JUMPDEST PUSH1 0x40 MLOAD DUP1 SWAP2 SUB SWAP1 RETURN JUMPDEST CALLVALUE DUP1 ISZERO PUSH2 0x12B JUMPI PUSH0 DUP1 REVERT JUMPDEST POP PUSH2 0x134 PUSH2 0x3F2 JUMP JUMPDEST PUSH1 0x40 MLOAD PUSH2 0x141 SWAP2 SWAP1 PUSH2 0x9BB JUMP JUMPDEST PUSH1 0x40 MLOAD DUP1 SWAP2 SUB SWAP1 RETURN JUMPDEST CALLVALUE DUP1 ISZERO PUSH2 0x155 JUMPI PUSH0 DUP1 REVERT JUMPDEST POP PUSH2 0x15E PUSH2 0x3F8 JUMP JUMPDEST PUSH1 0x40 MLOAD PUSH2 0x16B SWAP2 SWAP1 PUSH2 0x9BB JUMP JUMPDEST PUSH1 0x40 MLOAD DUP1 SWAP2 SUB SWAP1 RETURN JUMPDEST CALLVALUE DUP1 ISZERO PUSH2 0x17F JUMPI PUSH0 DUP1 REVERT JUMPDEST POP PUSH2 0x188 PUSH2 0x3FE JUMP JUMPDEST PUSH1 0x40 MLOAD PUSH2 0x195 SWAP2 SWAP1 PUSH2 0x9EE JUMP JUMPDEST PUSH1 0x40 MLOAD DUP1 SWAP2 SUB SWAP1 RETURN JUMPDEST CALLVALUE DUP1 ISZERO PUSH2 0x1A9 JUMPI PUSH0 DUP1 REVERT JUMPDEST POP PUSH2 0x1B2 PUSH2 0x410 JUMP JUMPDEST PUSH1 0x40 MLOAD PUSH2 0x1BF SWAP2 SWAP1 PUSH2 0x9EE JUMP JUMPDEST PUSH1 0x40 MLOAD DUP1 SWAP2 SUB SWAP1 RETURN JUMPDEST CALLVALUE DUP1 ISZERO PUSH2 0x1D3 JUMPI PUSH0 DUP1 REVERT JUMPDEST POP PUSH2 0x1DC PUSH2 0x425 JUMP JUMPDEST PUSH1 0x40 MLOAD PUSH2 0x1E9 SWAP2 SWAP1 PUSH2 0x9BB JUMP JUMPDEST PUSH1 0x40 MLOAD DUP1 SWAP2 SUB SWAP1 RETURN JUMPDEST CALLVALUE DUP1 ISZERO PUSH2 0x1FD JUMPI PUSH0 DUP1 REVERT JUMPDEST POP PUSH2 0x206 PUSH2 0x42B JUMP JUMPDEST STOP JUMPDEST CALLVALUE DUP1 ISZERO PUSH2 0x213 JUMPI PUSH0 DUP1 REVERT JUMPDEST POP PUSH2 0x21C PUSH2 0x613 JUMP JUMPDEST PUSH1 0x40 MLOAD PUSH2 0x229 SWAP2 SWAP1 PUSH2 0x9BB JUMP JUMPDEST PUSH1 0x40 MLOAD DUP1 SWAP2 SUB SWAP1 RETURN JUMPDEST CALLVALUE DUP1 ISZERO PUSH2 0x23D JUMPI PUSH0 DUP1 REVERT JUMPDEST POP PUSH2 0x246 PUSH2 0x619 JUMP JUMPDEST PUSH1 0x40 MLOAD PUSH2 0x253 SWAP2 SWAP1 PUSH2 0x9BB JUMP JUMPDEST PUSH1 0x40 MLOAD DUP1 SWAP2 SUB SWAP1 RETURN JUMPDEST CALLVALUE DUP1 ISZERO PUSH2 0x267 JUMPI PUSH0 DUP1 REVERT JUMPDEST POP PUSH2 0x270 PUSH2 0x622 JUMP JUMPDEST PUSH1 0x40 MLOAD PUSH2 0x27D SWAP2 SWAP1 PUSH2 0x9BB JUMP JUMPDEST PUSH1 0x40 MLOAD DUP1 SWAP2 SUB SWAP1 RETURN JUMPDEST CALLVALUE DUP1 ISZERO PUSH2 0x291 JUMPI PUSH0 DUP1 REVERT JUMPDEST POP PUSH2 0x29A PUSH2 0x628 JUMP JUMPDEST PUSH1 0x40 MLOAD PUSH2 0x2A7 SWAP2 SWAP1 PUSH2 0xA46 JUMP JUMPDEST PUSH1 0x40 MLOAD DUP1 SWAP2 SUB SWAP1 RETURN JUMPDEST PUSH2 0x2B8 PUSH2 0x64B JUMP JUMPDEST STOP JUMPDEST CALLVALUE DUP1 ISZERO PUSH2 0x2C5 JUMPI PUSH0 DUP1 REVERT JUMPDEST POP PUSH2 0x2CE PUSH2 0x82D JUMP JUMPDEST PUSH1 0x40 MLOAD PUSH2 0x2DB SWAP2 SWAP1 PUSH2 0xA46 JUMP JUMPDEST PUSH1 0x40 MLOAD DUP1 SWAP2 SUB SWAP1 RETURN JUMPDEST CALLVALUE DUP1 ISZERO PUSH2 0x2EF JUMPI PUSH0 DUP1 REVERT JUMPDEST POP PUSH2 0x2F8 PUSH2 0x852 JUMP JUMPDEST PUSH1 0x40 MLOAD PUSH2 0x305 SWAP2 SWAP1 PUSH2 0x983 JUMP JUMPDEST PUSH1 0x40 MLOAD DUP1 SWAP2 SUB SWAP1 RETURN JUMPDEST CALLVALUE DUP1 ISZERO PUSH2 0x319 JUMPI PUSH0 DUP1 REVERT JUMPDEST POP PUSH2 0x322 PUSH2 0x8DE JUMP JUMPDEST PUSH1 0x40 MLOAD PUSH2 0x32F SWAP2 SWAP1 PUSH2 0x9EE JUMP JUMPDEST PUSH1 0x40 MLOAD DUP1 SWAP2 SUB SWAP1 RETURN JUMPDEST CALLVALUE DUP1 ISZERO PUSH2 0x343 JUMPI PUSH0 DUP1 REVERT JUMPDEST POP PUSH2 0x34C PUSH2 0x8F3 JUMP JUMPDEST PUSH1 0x40 MLOAD PUSH2 0x359 SWAP2 SWAP1 PUSH2 0x9BB JUMP JUMPDEST PUSH1 0x40 MLOAD DUP1 SWAP2 SUB SWAP1 RETURN JUMPDEST PUSH1 0x60 PUSH1 0x6 DUP1 SLOAD PUSH2 0x371 SWAP1 PUSH2 0xA8C JUMP JUMPDEST DUP1 PUSH1 0x1F ADD PUSH1 0x20 DUP1 SWAP2 DIV MUL PUSH1 0x20 ADD PUSH1 0x40 MLOAD SWAP1 DUP2 ADD PUSH1 0x40 MSTORE DUP1 SWAP3 SWAP2 SWAP1 DUP2 DUP2 MSTORE PUSH1 0x20 ADD DUP3 DUP1 SLOAD PUSH2 0x39D SWAP1 PUSH2 0xA8C JUMP JUMPDEST DUP1 ISZERO PUSH2 0x3E8 JUMPI DUP1 PUSH1 0x1F LT PUSH2 0x3BF JUMPI PUSH2 0x100 DUP1 DUP4 SLOAD DIV MUL DUP4 MSTORE SWAP2 PUSH1 0x20 ADD SWAP2 PUSH2 0x3E8 JUMP JUMPDEST DUP3 ADD SWAP2 SWAP1 PUSH0 MSTORE PUSH1 0x20 PUSH0 KECCAK256 SWAP1 JUMPDEST DUP2 SLOAD DUP2 MSTORE SWAP1 PUSH1 0x1 ADD SWAP1 PUSH1 0x20 ADD DUP1 DUP4 GT PUSH2 0x3CB JUMPI DUP3 SWAP1 SUB PUSH1 0x1F AND DUP3 ADD SWAP2 JUMPDEST POP POP POP POP POP SWAP1 POP SWAP1 JUMP JUMPDEST PUSH1 0x7 SLOAD DUP2 JUMP JUMPDEST PUSH1 0x9 SLOAD DUP2 JUMP JUMPDEST PUSH1 0x5 PUSH0 SWAP1 SLOAD SWAP1 PUSH2 0x100 EXP SWAP1 DIV PUSH1 0xFF AND DUP2 JUMP JUMPDEST PUSH0 PUSH1 0x5 PUSH0 SWAP1 SLOAD SWAP1 PUSH2 0x100 EXP SWAP1 DIV PUSH1 0xFF AND SWAP1 POP SWAP1 JUMP JUMPDEST PUSH1 0x8 SLOAD DUP2 JUMP JUMPDEST PUSH0 DUP1 SLOAD SWAP1 PUSH2 0x100 EXP SWAP1 DIV PUSH20 0xFFFFFFFFFFFFFFFFFFFFFFFFFFFFFFFFFFFFFFFF AND PUSH20 0xFFFFFFFFFFFFFFFFFFFFFFFFFFFFFFFFFFFFFFFF AND CALLER PUSH20 0xFFFFFFFFFFFFFFFFFFFFFFFFFFFFFFFFFFFFFFFF AND EQ PUSH2 0x4B8 JUMPI PUSH1 0x40 MLOAD PUSH32 0x8C379A000000000000000000000000000000000000000000000000000000000 DUP2 MSTORE PUSH1 0x4 ADD PUSH2 0x4AF SWAP1 PUSH2 0xB2C JUMP JUMPDEST PUSH1 0x40 MLOAD DUP1 SWAP2 SUB SWAP1 REVERT JUMPDEST PUSH1 0x5 PUSH0 SWAP1 SLOAD SWAP1 PUSH2 0x100 EXP SWAP1 DIV PUSH1 0xFF AND PUSH2 0x506 JUMPI PUSH1 0x40 MLOAD PUSH32 0x8C379A000000000000000000000000000000000000000000000000000000000 DUP2 MSTORE PUSH1 0x4 ADD PUSH2 0x4FD SWAP1 PUSH2 0xBBA JUMP JUMPDEST PUSH1 0x40 MLOAD DUP1 SWAP2 SUB SWAP1 REVERT JUMPDEST PUSH0 PUSH1 0x5 PUSH0 PUSH2 0x100 EXP DUP2 SLOAD DUP2 PUSH1 0xFF MUL NOT AND SWAP1 DUP4 ISZERO ISZERO MUL OR SWAP1 SSTORE POP PUSH1 0x1 PUSH1 0xA PUSH0 PUSH2 0x100 EXP DUP2 SLOAD DUP2 PUSH1 0xFF MUL NOT AND SWAP1 DUP4 ISZERO ISZERO MUL OR SWAP1 SSTORE POP PUSH1 0x1 PUSH0 SWAP1 SLOAD SWAP1 PUSH2 0x100 EXP SWAP1 DIV PUSH20 0xFFFFFFFFFFFFFFFFFFFFFFFFFFFFFFFFFFFFFFFF AND PUSH20 0xFFFFFFFFFFFFFFFFFFFFFFFFFFFFFFFFFFFFFFFF AND PUSH2 0x8FC PUSH1 0x8 SLOAD SWAP1 DUP2 ISZERO MUL SWAP1 PUSH1 0x40 MLOAD PUSH0 PUSH1 0x40 MLOAD DUP1 DUP4 SUB DUP2 DUP6 DUP9 DUP9 CALL SWAP4 POP POP POP POP ISZERO DUP1 ISZERO PUSH2 0x59F JUMPI RETURNDATASIZE PUSH0 DUP1 RETURNDATACOPY RETURNDATASIZE PUSH0 REVERT JUMPDEST POP PUSH1 0x1 PUSH0 SWAP1 SLOAD SWAP1 PUSH2 0x100 EXP SWAP1 DIV PUSH20 0xFFFFFFFFFFFFFFFFFFFFFFFFFFFFFFFFFFFFFFFF AND PUSH20 0xFFFFFFFFFFFFFFFFFFFFFFFFFFFFFFFFFFFFFFFF AND PUSH32 0xEEDD444C80A4085394147F0C073E0EAA38424E2202F53FD968D52B23477945D1 PUSH1 0x8 SLOAD PUSH1 0x40 MLOAD PUSH2 0x609 SWAP2 SWAP1 PUSH2 0x9BB JUMP JUMPDEST PUSH1 0x40 MLOAD DUP1 SWAP2 SUB SWAP1 LOG2 JUMP JUMPDEST PUSH1 0x4 SLOAD DUP2 JUMP JUMPDEST PUSH0 PUSH1 0x8 SLOAD SWAP1 POP SWAP1 JUMP JUMPDEST PUSH1 0x3 SLOAD DUP2 JUMP JUMPDEST PUSH0 DUP1 SLOAD SWAP1 PUSH2 0x100 EXP SWAP1 DIV PUSH20 0xFFFFFFFFFFFFFFFFFFFFFFFFFFFFFFFFFFFFFFFF AND DUP2 JUMP JUMPDEST PUSH1 0x1 PUSH0 SWAP1 SLOAD SWAP1 PUSH2 0x100 EXP SWAP1 DIV PUSH20 0xFFFFFFFFFFFFFFFFFFFFFFFFFFFFFFFFFFFFFFFF AND PUSH20 0xFFFFFFFFFFFFFFFFFFFFFFFFFFFFFFFFFFFFFFFF AND CALLER PUSH20 0xFFFFFFFFFFFFFFFFFFFFFFFFFFFFFFFFFFFFFFFF AND EQ PUSH2 0x6DA JUMPI PUSH1 0x40 MLOAD PUSH32 0x8C379A000000000000000000000000000000000000000000000000000000000 DUP2 MSTORE PUSH1 0x4 ADD PUSH2 0x6D1 SWAP1 PUSH2 0xC48 JUMP JUMPDEST PUSH1 0x40 MLOAD DUP1 SWAP2 SUB SWAP1 REVERT JUMPDEST PUSH1 0x5 PUSH0 SWAP1 SLOAD SWAP1 PUSH2 0x100 EXP SWAP1 DIV PUSH1 0xFF AND ISZERO PUSH2 0x729 JUMPI PUSH1 0x40 MLOAD PUSH32 0x8C379A000000000000000000000000000000000000000000000000000000000 DUP2 MSTORE PUSH1 0x4 ADD PUSH2 0x720 SWAP1 PUSH2 0xCB0 JUMP JUMPDEST PUSH1 0x40 MLOAD DUP1 SWAP2 SUB SWAP1 REVERT JUMPDEST PUSH1 0x9 SLOAD CALLVALUE EQ PUSH2 0x76D JUMPI PUSH1 0x40 MLOAD PUSH32 0x8C379A000000000000000000000000000000000000000000000000000000000 DUP2 MSTORE PUSH1 0x4 ADD PUSH2 0x764 SWAP1 PUSH2 0xD3E JUMP JUMPDEST PUSH1 0x40 MLOAD DUP1 SWAP2 SUB SWAP1 REVERT JUMPDEST PUSH1 0xA PUSH0 SWAP1 SLOAD SWAP1 PUSH2 0x100 EXP SWAP1 DIV PUSH1 0xFF AND ISZERO PUSH2 0x7BC JUMPI PUSH1 0x40 MLOAD PUSH32 0x8C379A000000000000000000000000000000000000000000000000000000000 DUP2 MSTORE PUSH1 0x4 ADD PUSH2 0x7B3 SWAP1 PUSH2 0xDA6 JUMP JUMPDEST PUSH1 0x40 MLOAD DUP1 SWAP2 SUB SWAP1 REVERT JUMPDEST PUSH1 0x1 PUSH1 0x5 PUSH0 PUSH2 0x100 EXP DUP2 SLOAD DUP2 PUSH1 0xFF MUL NOT AND SWAP1 DUP4 ISZERO ISZERO MUL OR SWAP1 SSTORE POP TIMESTAMP PUSH1 0x4 DUP2 SWAP1 SSTORE POP CALLER PUSH20 0xFFFFFFFFFFFFFFFFFFFFFFFFFFFFFFFFFFFFFFFF AND PUSH32 0x3B5033869479E8A98AF42B272F05933F60489FE9FB43D63E11A6C31F3FA7474 CALLVALUE PUSH1 0x40 MLOAD PUSH2 0x823 SWAP2 SWAP1 PUSH2 0x9BB JUMP JUMPDEST PUSH1 0x40 MLOAD DUP1 SWAP2 SUB SWAP1 LOG2 JUMP JUMPDEST PUSH1 0x1 PUSH0 SWAP1 SLOAD SWAP1 PUSH2 0x100 EXP SWAP1 DIV PUSH20 0xFFFFFFFFFFFFFFFFFFFFFFFFFFFFFFFFFFFFFFFF AND DUP2 JUMP JUMPDEST PUSH1 0x6 DUP1 SLOAD PUSH2 0x85F SWAP1 PUSH2 0xA8C JUMP JUMPDEST DUP1 PUSH1 0x1F ADD PUSH1 0x20 DUP1 SWAP2 DIV MUL PUSH1 0x20 ADD PUSH1 0x40 MLOAD SWAP1 DUP2 ADD PUSH1 0x40 MSTORE DUP1 SWAP3 SWAP2 SWAP1 DUP2 DUP2 MSTORE PUSH1 0x20 ADD DUP3 DUP1 SLOAD PUSH2 0x88B SWAP1 PUSH2 0xA8C JUMP JUMPDEST DUP1 ISZERO PUSH2 0x8D6 JUMPI DUP1 PUSH1 0x1F LT PUSH2 0x8AD JUMPI PUSH2 0x100 DUP1 DUP4 SLOAD DIV MUL DUP4 MSTORE SWAP2 PUSH1 0x20 ADD SWAP2 PUSH2 0x8D6 JUMP JUMPDEST DUP3 ADD SWAP2 SWAP1 PUSH0 MSTORE PUSH1 0x20 PUSH0 KECCAK256 SWAP1 JUMPDEST DUP2 SLOAD DUP2 MSTORE SWAP1 PUSH1 0x1 ADD SWAP1 PUSH1 0x20 ADD DUP1 DUP4 GT PUSH2 0x8B9 JUMPI DUP3 SWAP1 SUB PUSH1 0x1F AND DUP3 ADD SWAP2 JUMPDEST POP POP POP POP POP DUP2 JUMP JUMPDEST PUSH0 PUSH1 0xA PUSH0 SWAP1 SLOAD SWAP1 PUSH2 0x100 EXP SWAP1 DIV PUSH1 0xFF AND SWAP1 POP SWAP1 JUMP JUMPDEST PUSH1 0x2 SLOAD DUP2 JUMP JUMPDEST PUSH0 DUP2 MLOAD SWAP1 POP SWAP2 SWAP1 POP JUMP JUMPDEST PUSH0 DUP3 DUP3 MSTORE PUSH1 0x20 DUP3 ADD SWAP1 POP SWAP3 SWAP2 POP POP JUMP JUMPDEST PUSH0 JUMPDEST DUP4 DUP2 LT ISZERO PUSH2 0x930 JUMPI DUP1 DUP3 ADD MLOAD DUP2 DUP5 ADD MSTORE PUSH1 0x20 DUP2 ADD SWAP1 POP PUSH2 0x915 JUMP JUMPDEST PUSH0 DUP5 DUP5 ADD MSTORE POP POP POP POP JUMP JUMPDEST PUSH0 PUSH1 0x1F NOT PUSH1 0x1F DUP4 ADD AND SWAP1 POP SWAP2 SWAP1 POP JUMP JUMPDEST PUSH0 PUSH2 0x955 DUP3 PUSH2 0x8F9 JUMP JUMPDEST PUSH2 0x95F DUP2 DUP6 PUSH2 0x903 JUMP JUMPDEST SWAP4 POP PUSH2 0x96F DUP2 DUP6 PUSH1 0x20 DUP7 ADD PUSH2 0x913 JUMP JUMPDEST PUSH2 0x978 DUP2 PUSH2 0x93B JUMP JUMPDEST DUP5 ADD SWAP2 POP POP SWAP3 SWAP2 POP POP JUMP JUMPDEST PUSH0 PUSH1 0x20 DUP3 ADD SWAP1 POP DUP2 DUP2 SUB PUSH0 DUP4 ADD MSTORE PUSH2 0x99B DUP2 DUP5 PUSH2 0x94B JUMP JUMPDEST SWAP1 POP SWAP3 SWAP2 POP POP JUMP JUMPDEST PUSH0 DUP2 SWAP1 POP SWAP2 SWAP1 POP JUMP JUMPDEST PUSH2 0x9B5 DUP2 PUSH2 0x9A3 JUMP JUMPDEST DUP3 MSTORE POP POP JUMP JUMPDEST PUSH0 PUSH1 0x20 DUP3 ADD SWAP1 POP PUSH2 0x9CE PUSH0 DUP4 ADD DUP5 PUSH2 0x9AC JUMP JUMPDEST SWAP3 SWAP2 POP POP JUMP JUMPDEST PUSH0 DUP2 ISZERO ISZERO SWAP1 POP SWAP2 SWAP1 POP JUMP JUMPDEST PUSH2 0x9E8 DUP2 PUSH2 0x9D4 JUMP JUMPDEST DUP3 MSTORE POP POP JUMP JUMPDEST PUSH0 PUSH1 0x20 DUP3 ADD SWAP1 POP PUSH2 0xA01 PUSH0 DUP4 ADD DUP5 PUSH2 0x9DF JUMP JUMPDEST SWAP3 SWAP2 POP POP JUMP JUMPDEST PUSH0 PUSH20 0xFFFFFFFFFFFFFFFFFFFFFFFFFFFFFFFFFFFFFFFF DUP3 AND SWAP1 POP SWAP2 SWAP1 POP JUMP JUMPDEST PUSH0 PUSH2 0xA30 DUP3 PUSH2 0xA07 JUMP JUMPDEST SWAP1 POP SWAP2 SWAP1 POP JUMP JUMPDEST PUSH2 0xA40 DUP2 PUSH2 0xA26 JUMP JUMPDEST DUP3 MSTORE POP POP JUMP JUMPDEST PUSH0 PUSH1 0x20 DUP3 ADD SWAP1 POP PUSH2 0xA59 PUSH0 DUP4 ADD DUP5 PUSH2 0xA37 JUMP JUMPDEST SWAP3 SWAP2 POP POP JUMP JUMPDEST PUSH32 0x4E487B7100000000000000000000000000000000000000000000000000000000 PUSH0 MSTORE PUSH1 0x22 PUSH1 0x4 MSTORE PUSH1 0x24 PUSH0 REVERT JUMPDEST PUSH0 PUSH1 0x2 DUP3 DIV SWAP1 POP PUSH1 0x1 DUP3 AND DUP1 PUSH2 0xAA3 JUMPI PUSH1 0x7F DUP3 AND SWAP2 POP JUMPDEST PUSH1 0x20 DUP3 LT DUP2 SUB PUSH2 0xAB6 JUMPI PUSH2 0xAB5 PUSH2 0xA5F JUMP JUMPDEST JUMPDEST POP SWAP2 SWAP1 POP JUMP JUMPDEST PUSH32 0x4F6E6C7920746865206F776E65722063616E20706572666F726D207468697320 PUSH0 DUP3 ADD MSTORE PUSH32 0x616374696F6E0000000000000000000000000000000000000000000000000000 PUSH1 0x20 DUP3 ADD MSTORE POP JUMP JUMPDEST PUSH0 PUSH2 0xB16 PUSH1 0x26 DUP4 PUSH2 0x903 JUMP JUMPDEST SWAP2 POP PUSH2 0xB21 DUP3 PUSH2 0xABC JUMP JUMPDEST PUSH1 0x40 DUP3 ADD SWAP1 POP SWAP2 SWAP1 POP JUMP JUMPDEST PUSH0 PUSH1 0x20 DUP3 ADD SWAP1 POP DUP2 DUP2 SUB PUSH0 DUP4 ADD MSTORE PUSH2 0xB43 DUP2 PUSH2 0xB0A JUMP JUMPDEST SWAP1 POP SWAP2 SWAP1 POP JUMP JUMPDEST PUSH32 0x5468652072656E74616C20636F6E7472616374206973206E6F74206163746976 PUSH0 DUP3 ADD MSTORE PUSH32 0x6500000000000000000000000000000000000000000000000000000000000000 PUSH1 0x20 DUP3 ADD MSTORE POP JUMP JUMPDEST PUSH0 PUSH2 0xBA4 PUSH1 0x21 DUP4 PUSH2 0x903 JUMP JUMPDEST SWAP2 POP PUSH2 0xBAF DUP3 PUSH2 0xB4A JUMP JUMPDEST PUSH1 0x40 DUP3 ADD SWAP1 POP SWAP2 SWAP1 POP JUMP JUMPDEST PUSH0 PUSH1 0x20 DUP3 ADD SWAP1 POP DUP2 DUP2 SUB PUSH0 DUP4 ADD MSTORE PUSH2 0xBD1 DUP2 PUSH2 0xB98 JUMP JUMPDEST SWAP1 POP SWAP2 SWAP1 POP JUMP JUMPDEST PUSH32 0x4F6E6C79207468652074656E616E742063616E20706572666F726D2074686973 PUSH0 DUP3 ADD MSTORE PUSH32 0x20616374696F6E00000000000000000000000000000000000000000000000000 PUSH1 0x20 DUP3 ADD MSTORE POP JUMP JUMPDEST PUSH0 PUSH2 0xC32 PUSH1 0x27 DUP4 PUSH2 0x903 JUMP JUMPDEST SWAP2 POP PUSH2 0xC3D DUP3 PUSH2 0xBD8 JUMP JUMPDEST PUSH1 0x40 DUP3 ADD SWAP1 POP SWAP2 SWAP1 POP JUMP JUMPDEST PUSH0 PUSH1 0x20 DUP3 ADD SWAP1 POP DUP2 DUP2 SUB PUSH0 DUP4 ADD MSTORE PUSH2 0xC5F DUP2 PUSH2 0xC26 JUMP JUMPDEST SWAP1 POP SWAP2 SWAP1 POP JUMP JUMPDEST PUSH32 0x5468652072656E74616C20636F6E747261637420697320616374697665000000 PUSH0 DUP3 ADD MSTORE POP JUMP JUMPDEST PUSH0 PUSH2 0xC9A PUSH1 0x1D DUP4 PUSH2 0x903 JUMP JUMPDEST SWAP2 POP PUSH2 0xCA5 DUP3 PUSH2 0xC66 JUMP JUMPDEST PUSH1 0x20 DUP3 ADD SWAP1 POP SWAP2 SWAP1 POP JUMP JUMPDEST PUSH0 PUSH1 0x20 DUP3 ADD SWAP1 POP DUP2 DUP2 SUB PUSH0 DUP4 ADD MSTORE PUSH2 0xCC7 DUP2 PUSH2 0xC8E JUMP JUMPDEST SWAP1 POP SWAP2 SWAP1 POP JUMP JUMPDEST PUSH32 0x496E636F7272656374207061796D656E7420616D6F756E742E204D7573742062 PUSH0 DUP3 ADD MSTORE PUSH32 0x652072656E74202B206465706F73697400000000000000000000000000000000 PUSH1 0x20 DUP3 ADD MSTORE POP JUMP JUMPDEST PUSH0 PUSH2 0xD28 PUSH1 0x30 DUP4 PUSH2 0x903 JUMP JUMPDEST SWAP2 POP PUSH2 0xD33 DUP3 PUSH2 0xCCE JUMP JUMPDEST PUSH1 0x40 DUP3 ADD SWAP1 POP SWAP2 SWAP1 POP JUMP JUMPDEST PUSH0 PUSH1 0x20 DUP3 ADD SWAP1 POP DUP2 DUP2 SUB PUSH0 DUP4 ADD MSTORE PUSH2 0xD55 DUP2 PUSH2 0xD1C JUMP JUMPDEST SWAP1 POP SWAP2 SWAP1 POP JUMP JUMPDEST PUSH32 0x52656E74616C2069732066696E69736865640000000000000000000000000000 PUSH0 DUP3 ADD MSTORE POP JUMP JUMPDEST PUSH0 PUSH2 0xD90 PUSH1 0x12 DUP4 PUSH2 0x903 JUMP JUMPDEST SWAP2 POP PUSH2 0xD9B DUP3 PUSH2 0xD5C JUMP JUMPDEST PUSH1 0x20 DUP3 ADD SWAP1 POP SWAP2 SWAP1 POP JUMP JUMPDEST PUSH0 PUSH1 0x20 DUP3 ADD SWAP1 POP DUP2 DUP2 SUB PUSH0 DUP4 ADD MSTORE PUSH2 0xDBD DUP2 PUSH2 0xD84 JUMP JUMPDEST SWAP1 POP SWAP2 SWAP1 POP JUMP INVALID LOG2 PUSH5 0x6970667358 0x22 SLT KECCAK256 0xB1 CODESIZE 0xA6 EQ POP PUSH25 0x27D9E012479F26C30362BA8A45CF5D6638F6E4F1DEBDAFB009 BALANCE PUSH5 0x736F6C6343 STOP ADDMOD XOR STOP CALLER "
				},
				"gasEstimates": {
					"creation": {
						"codeDepositCost": "715600",
						"executionCost": "infinite",
						"totalCost": "infinite"
					},
					"external": {
						"RentalFinished()": "2539",
						"assetName()": "infinite",
						"completeRental()": "infinite",
						"depositAmount()": "2470",
						"depositPercentage()": "2471",
						"getAssetName()": "infinite",
						"getDepositAmount()": "2455",
						"isActive()": "2556",
						"owner()": "2572",
						"payRent()": "56758",
						"rentAmount()": "2513",
						"rentalPeriod()": "2470",
						"rentalStatus()": "2496",
						"startTime()": "2514",
						"tenant()": "2530",
						"totalAmount()": "2493"
					}
				},
				"methodIdentifiers": {
					"RentalFinished()": "df714006",
					"assetName()": "c9230c5d",
					"completeRental()": "6d76a585",
					"depositAmount()": "419759f5",
					"depositPercentage()": "0c3562ba",
					"getAssetName()": "092d4eb5",
					"getDepositAmount()": "7d96f693",
					"isActive()": "22f3e2d4",
					"owner()": "8da5cb5b",
					"payRent()": "a709c4fe",
					"rentAmount()": "f8ef1e13",
					"rentalPeriod()": "8c4b8475",
					"rentalStatus()": "31d019b7",
					"startTime()": "78e97925",
					"tenant()": "adf07791",
					"totalAmount()": "1a39d8ef"
				}
			},
			"storageLayout": {
				"storage": [
					{
						"astId": 3,
						"contract": "Renting.sol:Renting",
						"label": "owner",
						"offset": 0,
						"slot": "0",
						"type": "t_address"
					},
					{
						"astId": 5,
						"contract": "Renting.sol:Renting",
						"label": "tenant",
						"offset": 0,
						"slot": "1",
						"type": "t_address"
					},
					{
						"astId": 7,
						"contract": "Renting.sol:Renting",
						"label": "rentAmount",
						"offset": 0,
						"slot": "2",
						"type": "t_uint256"
					},
					{
						"astId": 9,
						"contract": "Renting.sol:Renting",
						"label": "rentalPeriod",
						"offset": 0,
						"slot": "3",
						"type": "t_uint256"
					},
					{
						"astId": 11,
						"contract": "Renting.sol:Renting",
						"label": "startTime",
						"offset": 0,
						"slot": "4",
						"type": "t_uint256"
					},
					{
						"astId": 13,
						"contract": "Renting.sol:Renting",
						"label": "isActive",
						"offset": 0,
						"slot": "5",
						"type": "t_bool"
					},
					{
						"astId": 15,
						"contract": "Renting.sol:Renting",
						"label": "assetName",
						"offset": 0,
						"slot": "6",
						"type": "t_string_storage"
					},
					{
						"astId": 18,
						"contract": "Renting.sol:Renting",
						"label": "depositPercentage",
						"offset": 0,
						"slot": "7",
						"type": "t_uint256"
					},
					{
						"astId": 20,
						"contract": "Renting.sol:Renting",
						"label": "depositAmount",
						"offset": 0,
						"slot": "8",
						"type": "t_uint256"
					},
					{
						"astId": 22,
						"contract": "Renting.sol:Renting",
						"label": "totalAmount",
						"offset": 0,
						"slot": "9",
						"type": "t_uint256"
					},
					{
						"astId": 24,
						"contract": "Renting.sol:Renting",
						"label": "isFinished",
						"offset": 0,
						"slot": "10",
						"type": "t_bool"
					}
				],
				"types": {
					"t_address": {
						"encoding": "inplace",
						"label": "address",
						"numberOfBytes": "20"
					},
					"t_bool": {
						"encoding": "inplace",
						"label": "bool",
						"numberOfBytes": "1"
					},
					"t_string_storage": {
						"encoding": "bytes",
						"label": "string",
						"numberOfBytes": "32"
					},
					"t_uint256": {
						"encoding": "inplace",
						"label": "uint256",
						"numberOfBytes": "32"
					}
				}
			},
			"userdoc": {
				"kind": "user",
				"methods": {},
				"version": 1
			}
		}
	}
}